{
  "_format": "hh-sol-artifact-1",
  "contractName": "AgroNestCrop",
  "sourceName": "contracts/AgroNestCrop.sol",
  "abi": [
    {
      "inputs": [
        {
          "internalType": "address",
          "name": "initialOwner",
          "type": "address"
        }
      ],
      "stateMutability": "nonpayable",
      "type": "constructor"
    },
    {
      "inputs": [
        {
          "internalType": "address",
          "name": "sender",
          "type": "address"
        },
        {
          "internalType": "uint256",
          "name": "tokenId",
          "type": "uint256"
        },
        {
          "internalType": "address",
          "name": "owner",
          "type": "address"
        }
      ],
      "name": "ERC721IncorrectOwner",
      "type": "error"
    },
    {
      "inputs": [
        {
          "internalType": "address",
          "name": "operator",
          "type": "address"
        },
        {
          "internalType": "uint256",
          "name": "tokenId",
          "type": "uint256"
        }
      ],
      "name": "ERC721InsufficientApproval",
      "type": "error"
    },
    {
      "inputs": [
        {
          "internalType": "address",
          "name": "approver",
          "type": "address"
        }
      ],
      "name": "ERC721InvalidApprover",
      "type": "error"
    },
    {
      "inputs": [
        {
          "internalType": "address",
          "name": "operator",
          "type": "address"
        }
      ],
      "name": "ERC721InvalidOperator",
      "type": "error"
    },
    {
      "inputs": [
        {
          "internalType": "address",
          "name": "owner",
          "type": "address"
        }
      ],
      "name": "ERC721InvalidOwner",
      "type": "error"
    },
    {
      "inputs": [
        {
          "internalType": "address",
          "name": "receiver",
          "type": "address"
        }
      ],
      "name": "ERC721InvalidReceiver",
      "type": "error"
    },
    {
      "inputs": [
        {
          "internalType": "address",
          "name": "sender",
          "type": "address"
        }
      ],
      "name": "ERC721InvalidSender",
      "type": "error"
    },
    {
      "inputs": [
        {
          "internalType": "uint256",
          "name": "tokenId",
          "type": "uint256"
        }
      ],
      "name": "ERC721NonexistentToken",
      "type": "error"
    },
    {
      "inputs": [
        {
          "internalType": "address",
          "name": "owner",
          "type": "address"
        }
      ],
      "name": "OwnableInvalidOwner",
      "type": "error"
    },
    {
      "inputs": [
        {
          "internalType": "address",
          "name": "account",
          "type": "address"
        }
      ],
      "name": "OwnableUnauthorizedAccount",
      "type": "error"
    },
    {
      "anonymous": false,
      "inputs": [
        {
          "indexed": true,
          "internalType": "address",
          "name": "owner",
          "type": "address"
        },
        {
          "indexed": true,
          "internalType": "address",
          "name": "approved",
          "type": "address"
        },
        {
          "indexed": true,
          "internalType": "uint256",
          "name": "tokenId",
          "type": "uint256"
        }
      ],
      "name": "Approval",
      "type": "event"
    },
    {
      "anonymous": false,
      "inputs": [
        {
          "indexed": true,
          "internalType": "address",
          "name": "owner",
          "type": "address"
        },
        {
          "indexed": true,
          "internalType": "address",
          "name": "operator",
          "type": "address"
        },
        {
          "indexed": false,
          "internalType": "bool",
          "name": "approved",
          "type": "bool"
        }
      ],
      "name": "ApprovalForAll",
      "type": "event"
    },
    {
      "anonymous": false,
      "inputs": [
        {
          "indexed": true,
          "internalType": "uint256",
          "name": "tokenId",
          "type": "uint256"
        },
        {
          "indexed": true,
          "internalType": "address",
          "name": "farmer",
          "type": "address"
        },
        {
          "indexed": false,
          "internalType": "string",
          "name": "farmId",
          "type": "string"
        },
        {
          "indexed": false,
          "internalType": "uint256",
          "name": "capitalRequired",
          "type": "uint256"
        },
        {
          "indexed": false,
          "internalType": "uint256",
          "name": "harvestDate",
          "type": "uint256"
        }
      ],
      "name": "CropMinted",
      "type": "event"
    },
    {
      "anonymous": false,
      "inputs": [
        {
          "indexed": true,
          "internalType": "address",
          "name": "previousOwner",
          "type": "address"
        },
        {
          "indexed": true,
          "internalType": "address",
          "name": "newOwner",
          "type": "address"
        }
      ],
      "name": "OwnershipTransferred",
      "type": "event"
    },
    {
      "anonymous": false,
      "inputs": [
        {
          "indexed": true,
          "internalType": "address",
          "name": "from",
          "type": "address"
        },
        {
          "indexed": true,
          "internalType": "address",
          "name": "to",
          "type": "address"
        },
        {
          "indexed": true,
          "internalType": "uint256",
          "name": "tokenId",
          "type": "uint256"
        }
      ],
      "name": "Transfer",
      "type": "event"
    },
    {
      "inputs": [
        {
          "internalType": "address",
          "name": "to",
          "type": "address"
        },
        {
          "internalType": "uint256",
          "name": "tokenId",
          "type": "uint256"
        }
      ],
      "name": "approve",
      "outputs": [],
      "stateMutability": "nonpayable",
      "type": "function"
    },
    {
      "inputs": [
        {
          "internalType": "address",
          "name": "owner",
          "type": "address"
        }
      ],
      "name": "balanceOf",
      "outputs": [
        {
          "internalType": "uint256",
          "name": "",
          "type": "uint256"
        }
      ],
      "stateMutability": "view",
      "type": "function"
    },
    {
      "inputs": [
        {
          "internalType": "uint256",
          "name": "",
          "type": "uint256"
        }
      ],
      "name": "cropData",
      "outputs": [
        {
          "internalType": "string",
          "name": "farmId",
          "type": "string"
        },
        {
          "internalType": "uint256",
          "name": "hectares",
          "type": "uint256"
        },
        {
          "internalType": "string",
          "name": "grainType",
          "type": "string"
        },
        {
          "internalType": "uint256",
          "name": "estimatedYieldKg",
          "type": "uint256"
        },
        {
          "internalType": "uint256",
          "name": "capitalRequired",
          "type": "uint256"
        },
        {
          "internalType": "uint256",
          "name": "harvestDate",
          "type": "uint256"
        },
        {
          "internalType": "address",
          "name": "farmer",
          "type": "address"
        }
      ],
      "stateMutability": "view",
      "type": "function"
    },
    {
      "inputs": [
        {
          "internalType": "uint256",
          "name": "tokenId",
          "type": "uint256"
        }
      ],
      "name": "getApproved",
      "outputs": [
        {
          "internalType": "address",
          "name": "",
          "type": "address"
        }
      ],
      "stateMutability": "view",
      "type": "function"
    },
    {
      "inputs": [
        {
          "internalType": "uint256",
          "name": "tokenId",
          "type": "uint256"
        }
      ],
      "name": "getCropData",
      "outputs": [
        {
          "components": [
            {
              "internalType": "string",
              "name": "farmId",
              "type": "string"
            },
            {
              "internalType": "uint256",
              "name": "hectares",
              "type": "uint256"
            },
            {
              "internalType": "string",
              "name": "grainType",
              "type": "string"
            },
            {
              "internalType": "uint256",
              "name": "estimatedYieldKg",
              "type": "uint256"
            },
            {
              "internalType": "uint256",
              "name": "capitalRequired",
              "type": "uint256"
            },
            {
              "internalType": "uint256",
              "name": "harvestDate",
              "type": "uint256"
            },
            {
              "internalType": "address",
              "name": "farmer",
              "type": "address"
            }
          ],
          "internalType": "struct AgroNestCrop.CropMetadata",
          "name": "",
          "type": "tuple"
        }
      ],
      "stateMutability": "view",
      "type": "function"
    },
    {
      "inputs": [
        {
          "internalType": "address",
          "name": "owner",
          "type": "address"
        },
        {
          "internalType": "address",
          "name": "operator",
          "type": "address"
        }
      ],
      "name": "isApprovedForAll",
      "outputs": [
        {
          "internalType": "bool",
          "name": "",
          "type": "bool"
        }
      ],
      "stateMutability": "view",
      "type": "function"
    },
    {
      "inputs": [
        {
          "internalType": "address",
          "name": "to",
          "type": "address"
        },
        {
          "internalType": "string",
          "name": "farmId",
          "type": "string"
        },
        {
          "internalType": "uint256",
          "name": "hectares",
          "type": "uint256"
        },
        {
          "internalType": "string",
          "name": "grainType",
          "type": "string"
        },
        {
          "internalType": "uint256",
          "name": "estimatedYieldKg",
          "type": "uint256"
        },
        {
          "internalType": "uint256",
          "name": "capitalRequired",
          "type": "uint256"
        },
        {
          "internalType": "uint256",
          "name": "harvestDate",
          "type": "uint256"
        }
      ],
      "name": "mintCrop",
      "outputs": [
        {
          "internalType": "uint256",
          "name": "tokenId",
          "type": "uint256"
        }
      ],
      "stateMutability": "nonpayable",
      "type": "function"
    },
    {
      "inputs": [],
      "name": "name",
      "outputs": [
        {
          "internalType": "string",
          "name": "",
          "type": "string"
        }
      ],
      "stateMutability": "view",
      "type": "function"
    },
    {
      "inputs": [],
      "name": "owner",
      "outputs": [
        {
          "internalType": "address",
          "name": "",
          "type": "address"
        }
      ],
      "stateMutability": "view",
      "type": "function"
    },
    {
      "inputs": [
        {
          "internalType": "uint256",
          "name": "tokenId",
          "type": "uint256"
        }
      ],
      "name": "ownerOf",
      "outputs": [
        {
          "internalType": "address",
          "name": "",
          "type": "address"
        }
      ],
      "stateMutability": "view",
      "type": "function"
    },
    {
      "inputs": [],
      "name": "renounceOwnership",
      "outputs": [],
      "stateMutability": "nonpayable",
      "type": "function"
    },
    {
      "inputs": [
        {
          "internalType": "address",
          "name": "from",
          "type": "address"
        },
        {
          "internalType": "address",
          "name": "to",
          "type": "address"
        },
        {
          "internalType": "uint256",
          "name": "tokenId",
          "type": "uint256"
        }
      ],
      "name": "safeTransferFrom",
      "outputs": [],
      "stateMutability": "nonpayable",
      "type": "function"
    },
    {
      "inputs": [
        {
          "internalType": "address",
          "name": "from",
          "type": "address"
        },
        {
          "internalType": "address",
          "name": "to",
          "type": "address"
        },
        {
          "internalType": "uint256",
          "name": "tokenId",
          "type": "uint256"
        },
        {
          "internalType": "bytes",
          "name": "data",
          "type": "bytes"
        }
      ],
      "name": "safeTransferFrom",
      "outputs": [],
      "stateMutability": "nonpayable",
      "type": "function"
    },
    {
      "inputs": [
        {
          "internalType": "address",
          "name": "operator",
          "type": "address"
        },
        {
          "internalType": "bool",
          "name": "approved",
          "type": "bool"
        }
      ],
      "name": "setApprovalForAll",
      "outputs": [],
      "stateMutability": "nonpayable",
      "type": "function"
    },
    {
      "inputs": [
        {
          "internalType": "bytes4",
          "name": "interfaceId",
          "type": "bytes4"
        }
      ],
      "name": "supportsInterface",
      "outputs": [
        {
          "internalType": "bool",
          "name": "",
          "type": "bool"
        }
      ],
      "stateMutability": "view",
      "type": "function"
    },
    {
      "inputs": [],
      "name": "symbol",
      "outputs": [
        {
          "internalType": "string",
          "name": "",
          "type": "string"
        }
      ],
      "stateMutability": "view",
      "type": "function"
    },
    {
      "inputs": [
        {
          "internalType": "uint256",
          "name": "tokenId",
          "type": "uint256"
        }
      ],
      "name": "tokenURI",
      "outputs": [
        {
          "internalType": "string",
          "name": "",
          "type": "string"
        }
      ],
      "stateMutability": "view",
      "type": "function"
    },
    {
      "inputs": [],
      "name": "totalSupply",
      "outputs": [
        {
          "internalType": "uint256",
          "name": "",
          "type": "uint256"
        }
      ],
      "stateMutability": "view",
      "type": "function"
    },
    {
      "inputs": [
        {
          "internalType": "address",
          "name": "from",
          "type": "address"
        },
        {
          "internalType": "address",
          "name": "to",
          "type": "address"
        },
        {
          "internalType": "uint256",
          "name": "tokenId",
          "type": "uint256"
        }
      ],
      "name": "transferFrom",
      "outputs": [],
      "stateMutability": "nonpayable",
      "type": "function"
    },
    {
      "inputs": [
        {
          "internalType": "address",
          "name": "newOwner",
          "type": "address"
        }
      ],
      "name": "transferOwnership",
      "outputs": [],
      "stateMutability": "nonpayable",
      "type": "function"
    }
  ],
  "bytecode": "0x608060405234801562000010575f80fd5b5060405162001be938038062001be983398101604081905262000033916200012b565b806040518060400160405280600c81526020016b04167726f4e65737443726f760a41b8152506040518060400160405280600581526020016404143524f560dc1b815250815f9081620000879190620001f8565b506001620000968282620001f8565b5050506001600160a01b038116620000c757604051631e4fbdf760e01b81525f600482015260240160405180910390fd5b620000d281620000da565b5050620002c4565b600680546001600160a01b038381166001600160a01b0319831681179093556040519116919082907f8be0079c531659141344cd1fd0a4f28419497f9722a3daafe3b4186f6b6457e0905f90a35050565b5f602082840312156200013c575f80fd5b81516001600160a01b038116811462000153575f80fd5b9392505050565b634e487b7160e01b5f52604160045260245ffd5b600181811c908216806200018357607f821691505b602082108103620001a257634e487b7160e01b5f52602260045260245ffd5b50919050565b601f821115620001f357805f5260205f20601f840160051c81016020851015620001cf5750805b601f840160051c820191505b81811015620001f0575f8155600101620001db565b50505b505050565b81516001600160401b038111156200021457620002146200015a565b6200022c816200022584546200016e565b84620001a8565b602080601f83116001811462000262575f84156200024a5750858301515b5f19600386901b1c1916600185901b178555620002bc565b5f85815260208120601f198616915b82811015620002925788860151825594840194600190910190840162000271565b5085821015620002b057878501515f19600388901b60f8161c191681555b505060018460011b0185555b505050505050565b61191780620002d25f395ff3fe608060405234801561000f575f80fd5b5060043610610127575f3560e01c806370a08231116100a9578063a22cb4651161006e578063a22cb46514610280578063b88d4fde14610293578063c87b56dd146102a6578063e985e9c5146102b9578063f2fde38b146102cc575f80fd5b806370a082311461022c57806371472bd71461023f578063715018a61461025f5780638da5cb5b1461026757806395d89b4114610278575f80fd5b806323b872dd116100ef57806323b872dd146101ba578063253e4c79146101cd57806342842e0e146101e05780636352211e146101f35780636b9b4a6814610206575f80fd5b806301ffc9a71461012b57806306fdde0314610153578063081812fc14610168578063095ea7b31461019357806318160ddd146101a8575b5f80fd5b61013e610139366004611290565b6102df565b60405190151581526020015b60405180910390f35b61015b610330565b60405161014a91906112f8565b61017b61017636600461130a565b6103bf565b6040516001600160a01b03909116815260200161014a565b6101a66101a136600461133c565b6103e6565b005b6007545b60405190815260200161014a565b6101a66101c8366004611364565b6103f5565b6101ac6101db3660046113e2565b610483565b6101a66101ee366004611364565b61061f565b61017b61020136600461130a565b61063e565b61021961021436600461130a565b610648565b60405161014a979695949392919061147c565b6101ac61023a3660046114d6565b610797565b61025261024d36600461130a565b6107dc565b60405161014a91906114ef565b6101a66109f3565b6006546001600160a01b031661017b565b61015b610a06565b6101a661028e36600461156f565b610a15565b6101a66102a13660046115bc565b610a20565b61015b6102b436600461130a565b610a38565b61013e6102c7366004611691565b610aa9565b6101a66102da3660046114d6565b610ad6565b5f6001600160e01b031982166380ac58cd60e01b148061030f57506001600160e01b03198216635b5e139f60e01b145b8061032a57506301ffc9a760e01b6001600160e01b03198316145b92915050565b60605f805461033e906116c2565b80601f016020809104026020016040519081016040528092919081815260200182805461036a906116c2565b80156103b55780601f1061038c576101008083540402835291602001916103b5565b820191905f5260205f20905b81548152906001019060200180831161039857829003601f168201915b5050505050905090565b5f6103c982610b13565b505f828152600460205260409020546001600160a01b031661032a565b6103f1828233610b4b565b5050565b6001600160a01b03821661042357604051633250574960e11b81525f60048201526024015b60405180910390fd5b5f61042f838333610b58565b9050836001600160a01b0316816001600160a01b03161461047d576040516364283d7b60e01b81526001600160a01b038086166004830152602482018490528216604482015260640161041a565b50505050565b5f61048c610c4a565b60075f815461049a906116fa565b918290555090506104ab8a82610c77565b6040518060e001604052808a8a8080601f0160208091040260200160405190810160405280939291908181526020018383808284375f9201919091525050509082525060208082018a905260408051601f8a0183900483028101830182528981529201919089908990819084018382808284375f92018290525093855250505060208083018890526040808401889052606084018790526001600160a01b038f1660809094019390935284825260089052208151819061056b9082611762565b50602082015160018201556040820151600282019061058a9082611762565b50606082015160038201556080820151600482015560a0820151600582015560c090910151600690910180546001600160a01b0319166001600160a01b03928316179055604051908b169082907fd65c6e5a5b0188267d67c5cdc35a26e5fd081dfb16e7b34dbee1f71249d167ba9061060a908d908d908990899061181e565b60405180910390a39998505050505050505050565b61063983838360405180602001604052805f815250610a20565b505050565b5f61032a82610b13565b60086020525f9081526040902080548190610662906116c2565b80601f016020809104026020016040519081016040528092919081815260200182805461068e906116c2565b80156106d95780601f106106b0576101008083540402835291602001916106d9565b820191905f5260205f20905b8154815290600101906020018083116106bc57829003601f168201915b5050505050908060010154908060020180546106f4906116c2565b80601f0160208091040260200160405190810160405280929190818152602001828054610720906116c2565b801561076b5780601f106107425761010080835404028352916020019161076b565b820191905f5260205f20905b81548152906001019060200180831161074e57829003601f168201915b50505050600383015460048401546005850154600690950154939491939092506001600160a01b031687565b5f6001600160a01b0382166107c1576040516322718ad960e21b81525f600482015260240161041a565b506001600160a01b03165f9081526003602052604090205490565b6108206040518060e00160405280606081526020015f8152602001606081526020015f81526020015f81526020015f81526020015f6001600160a01b031681525090565b5f828152600260205260409020546001600160a01b031661087a5760405162461bcd60e51b8152602060048201526014602482015273151bdad95b88191bd95cc81b9bdd08195e1a5cdd60621b604482015260640161041a565b5f8281526008602052604090819020815160e081019092528054829082906108a1906116c2565b80601f01602080910402602001604051908101604052809291908181526020018280546108cd906116c2565b80156109185780601f106108ef57610100808354040283529160200191610918565b820191905f5260205f20905b8154815290600101906020018083116108fb57829003601f168201915b505050505081526020016001820154815260200160028201805461093b906116c2565b80601f0160208091040260200160405190810160405280929190818152602001828054610967906116c2565b80156109b25780601f10610989576101008083540402835291602001916109b2565b820191905f5260205f20905b81548152906001019060200180831161099557829003601f168201915b50505091835250506003820154602082015260048201546040820152600582015460608201526006909101546001600160a01b031660809091015292915050565b6109fb610c4a565b610a045f610c90565b565b60606001805461033e906116c2565b6103f1338383610ce1565b610a2b8484846103f5565b61047d3385858585610da8565b6060610a4382610b13565b505f610a5960408051602081019091525f815290565b90505f815111610a775760405180602001604052805f815250610aa2565b80610a8184610ed0565b604051602001610a9292919061185c565b6040516020818303038152906040525b9392505050565b6001600160a01b039182165f90815260056020908152604080832093909416825291909152205460ff1690565b610ade610c4a565b6001600160a01b038116610b0757604051631e4fbdf760e01b81525f600482015260240161041a565b610b1081610c90565b50565b5f818152600260205260408120546001600160a01b03168061032a57604051637e27328960e01b81526004810184905260240161041a565b6106398383836001610f60565b5f828152600260205260408120546001600160a01b0390811690831615610b8457610b84818486611064565b6001600160a01b03811615610bbe57610b9f5f855f80610f60565b6001600160a01b0381165f90815260036020526040902080545f190190555b6001600160a01b03851615610bec576001600160a01b0385165f908152600360205260409020805460010190555b5f8481526002602052604080822080546001600160a01b0319166001600160a01b0389811691821790925591518793918516917fddf252ad1be2c89b69c2b068fc378daa952ba7f163c4a11628f55a4df523b3ef91a4949350505050565b6006546001600160a01b03163314610a045760405163118cdaa760e01b815233600482015260240161041a565b6103f1828260405180602001604052805f8152506110c8565b600680546001600160a01b038381166001600160a01b0319831681179093556040519116919082907f8be0079c531659141344cd1fd0a4f28419497f9722a3daafe3b4186f6b6457e0905f90a35050565b6001600160a01b038316610d0a5760405163a9fbf51f60e01b81525f600482015260240161041a565b6001600160a01b038216610d3c57604051630b61174360e31b81526001600160a01b038316600482015260240161041a565b6001600160a01b038381165f81815260056020908152604080832094871680845294825291829020805460ff191686151590811790915591519182527f17307eab39ab6107e8899845ad3d59bd9653f200f220920489ca2b5937696c31910160405180910390a3505050565b6001600160a01b0383163b15610ec957604051630a85bd0160e11b81526001600160a01b0384169063150b7a0290610dea90889088908790879060040161188a565b6020604051808303815f875af1925050508015610e24575060408051601f3d908101601f19168201909252610e21918101906118c6565b60015b610e8b573d808015610e51576040519150601f19603f3d011682016040523d82523d5f602084013e610e56565b606091505b5080515f03610e8357604051633250574960e11b81526001600160a01b038516600482015260240161041a565b805160208201fd5b6001600160e01b03198116630a85bd0160e11b14610ec757604051633250574960e11b81526001600160a01b038516600482015260240161041a565b505b5050505050565b60605f610edc836110df565b60010190505f8167ffffffffffffffff811115610efb57610efb6115a8565b6040519080825280601f01601f191660200182016040528015610f25576020820181803683370190505b5090508181016020015b5f19016f181899199a1a9b1b9c1cb0b131b232b360811b600a86061a8153600a8504945084610f2f57509392505050565b8080610f7457506001600160a01b03821615155b15611035575f610f8384610b13565b90506001600160a01b03831615801590610faf5750826001600160a01b0316816001600160a01b031614155b8015610fc25750610fc08184610aa9565b155b15610feb5760405163a9fbf51f60e01b81526001600160a01b038416600482015260240161041a565b81156110335783856001600160a01b0316826001600160a01b03167f8c5be1e5ebec7d5bd14f71427d1e84f3dd0314c0f7b2291e5b200ac8c7c3b92560405160405180910390a45b505b50505f90815260046020526040902080546001600160a01b0319166001600160a01b0392909216919091179055565b61106f8383836111b6565b610639576001600160a01b03831661109d57604051637e27328960e01b81526004810182905260240161041a565b60405163177e802f60e01b81526001600160a01b03831660048201526024810182905260440161041a565b6110d2838361121a565b610639335f858585610da8565b5f8072184f03e93ff9f4daa797ed6e38ed64bf6a1f0160401b831061111d5772184f03e93ff9f4daa797ed6e38ed64bf6a1f0160401b830492506040015b6d04ee2d6d415b85acef81000000008310611149576d04ee2d6d415b85acef8100000000830492506020015b662386f26fc10000831061116757662386f26fc10000830492506010015b6305f5e100831061117f576305f5e100830492506008015b612710831061119357612710830492506004015b606483106111a5576064830492506002015b600a831061032a5760010192915050565b5f6001600160a01b038316158015906112125750826001600160a01b0316846001600160a01b031614806111ef57506111ef8484610aa9565b8061121257505f828152600460205260409020546001600160a01b038481169116145b949350505050565b6001600160a01b03821661124357604051633250574960e11b81525f600482015260240161041a565b5f61124f83835f610b58565b90506001600160a01b03811615610639576040516339e3563760e11b81525f600482015260240161041a565b6001600160e01b031981168114610b10575f80fd5b5f602082840312156112a0575f80fd5b8135610aa28161127b565b5f5b838110156112c55781810151838201526020016112ad565b50505f910152565b5f81518084526112e48160208601602086016112ab565b601f01601f19169290920160200192915050565b602081525f610aa260208301846112cd565b5f6020828403121561131a575f80fd5b5035919050565b80356001600160a01b0381168114611337575f80fd5b919050565b5f806040838503121561134d575f80fd5b61135683611321565b946020939093013593505050565b5f805f60608486031215611376575f80fd5b61137f84611321565b925061138d60208501611321565b9150604084013590509250925092565b5f8083601f8401126113ad575f80fd5b50813567ffffffffffffffff8111156113c4575f80fd5b6020830191508360208285010111156113db575f80fd5b9250929050565b5f805f805f805f805f60e08a8c0312156113fa575f80fd5b6114038a611321565b985060208a013567ffffffffffffffff8082111561141f575f80fd5b61142b8d838e0161139d565b909a50985060408c0135975060608c013591508082111561144a575f80fd5b506114578c828d0161139d565b9a9d999c50979a9699979860808801359760a0810135975060c0013595509350505050565b60e081525f61148e60e083018a6112cd565b88602084015282810360408401526114a681896112cd565b60608401979097525050608081019390935260a08301919091526001600160a01b031660c0909101529392505050565b5f602082840312156114e6575f80fd5b610aa282611321565b602081525f825160e0602084015261150b6101008401826112cd565b9050602084015160408401526040840151601f1984830301606085015261153282826112cd565b91505060608401516080840152608084015160a084015260a084015160c084015260018060a01b0360c08501511660e08401528091505092915050565b5f8060408385031215611580575f80fd5b61158983611321565b91506020830135801515811461159d575f80fd5b809150509250929050565b634e487b7160e01b5f52604160045260245ffd5b5f805f80608085870312156115cf575f80fd5b6115d885611321565b93506115e660208601611321565b925060408501359150606085013567ffffffffffffffff80821115611609575f80fd5b818701915087601f83011261161c575f80fd5b81358181111561162e5761162e6115a8565b604051601f8201601f19908116603f01168101908382118183101715611656576116566115a8565b816040528281528a602084870101111561166e575f80fd5b826020860160208301375f60208483010152809550505050505092959194509250565b5f80604083850312156116a2575f80fd5b6116ab83611321565b91506116b960208401611321565b90509250929050565b600181811c908216806116d657607f821691505b6020821081036116f457634e487b7160e01b5f52602260045260245ffd5b50919050565b5f6001820161171757634e487b7160e01b5f52601160045260245ffd5b5060010190565b601f82111561063957805f5260205f20601f840160051c810160208510156117435750805b601f840160051c820191505b81811015610ec9575f815560010161174f565b815167ffffffffffffffff81111561177c5761177c6115a8565b6117908161178a84546116c2565b8461171e565b602080601f8311600181146117c3575f84156117ac5750858301515b5f19600386901b1c1916600185901b178555610ec7565b5f85815260208120601f198616915b828110156117f1578886015182559484019460019091019084016117d2565b508582101561180e57878501515f19600388901b60f8161c191681555b5050505050600190811b01905550565b60608152836060820152838560808301375f608085830101525f6080601f19601f870116830101905083602083015282604083015295945050505050565b5f835161186d8184602088016112ab565b8351908301906118818183602088016112ab565b01949350505050565b6001600160a01b03858116825284166020820152604081018390526080606082018190525f906118bc908301846112cd565b9695505050505050565b5f602082840312156118d6575f80fd5b8151610aa28161127b56fea2646970667358221220fbf0953655ed224f14053cfe22555682f85f0444db41802c5edbf412b04deb4964736f6c63430008180033",
  "linkReferences": {},
  "deployedLinkReferences": {}
}