{
  "_format": "hh-sol-artifact-1",
  "contractName": "bCROPToken",
  "sourceName": "contracts/bCROPToken.sol",
  "abi": [
    {
      "inputs": [
        {
          "internalType": "address",
          "name": "initialOwner",
          "type": "address"
        },
        {
          "internalType": "address",
          "name": "_vault",
          "type": "address"
        }
      ],
      "stateMutability": "nonpayable",
      "type": "constructor"
    },
    {
      "inputs": [
        {
          "internalType": "address",
          "name": "spender",
          "type": "address"
        },
        {
          "internalType": "uint256",
          "name": "allowance",
          "type": "uint256"
        },
        {
          "internalType": "uint256",
          "name": "needed",
          "type": "uint256"
        }
      ],
      "name": "ERC20InsufficientAllowance",
      "type": "error"
    },
    {
      "inputs": [
        {
          "internalType": "address",
          "name": "sender",
          "type": "address"
        },
        {
          "internalType": "uint256",
          "name": "balance",
          "type": "uint256"
        },
        {
          "internalType": "uint256",
          "name": "needed",
          "type": "uint256"
        }
      ],
      "name": "ERC20InsufficientBalance",
      "type": "error"
    },
    {
      "inputs": [
        {
          "internalType": "address",
          "name": "approver",
          "type": "address"
        }
      ],
      "name": "ERC20InvalidApprover",
      "type": "error"
    },
    {
      "inputs": [
        {
          "internalType": "address",
          "name": "receiver",
          "type": "address"
        }
      ],
      "name": "ERC20InvalidReceiver",
      "type": "error"
    },
    {
      "inputs": [
        {
          "internalType": "address",
          "name": "sender",
          "type": "address"
        }
      ],
      "name": "ERC20InvalidSender",
      "type": "error"
    },
    {
      "inputs": [
        {
          "internalType": "address",
          "name": "spender",
          "type": "address"
        }
      ],
      "name": "ERC20InvalidSpender",
      "type": "error"
    },
    {
      "inputs": [
        {
          "internalType": "address",
          "name": "owner",
          "type": "address"
        }
      ],
      "name": "OwnableInvalidOwner",
      "type": "error"
    },
    {
      "inputs": [
        {
          "internalType": "address",
          "name": "account",
          "type": "address"
        }
      ],
      "name": "OwnableUnauthorizedAccount",
      "type": "error"
    },
    {
      "anonymous": false,
      "inputs": [
        {
          "indexed": true,
          "internalType": "address",
          "name": "owner",
          "type": "address"
        },
        {
          "indexed": true,
          "internalType": "address",
          "name": "spender",
          "type": "address"
        },
        {
          "indexed": false,
          "internalType": "uint256",
          "name": "value",
          "type": "uint256"
        }
      ],
      "name": "Approval",
      "type": "event"
    },
    {
      "anonymous": false,
      "inputs": [
        {
          "indexed": true,
          "internalType": "address",
          "name": "previousOwner",
          "type": "address"
        },
        {
          "indexed": true,
          "internalType": "address",
          "name": "newOwner",
          "type": "address"
        }
      ],
      "name": "OwnershipTransferred",
      "type": "event"
    },
    {
      "anonymous": false,
      "inputs": [
        {
          "indexed": true,
          "internalType": "address",
          "name": "from",
          "type": "address"
        },
        {
          "indexed": false,
          "internalType": "uint256",
          "name": "amount",
          "type": "uint256"
        }
      ],
      "name": "TokensBurned",
      "type": "event"
    },
    {
      "anonymous": false,
      "inputs": [
        {
          "indexed": true,
          "internalType": "address",
          "name": "to",
          "type": "address"
        },
        {
          "indexed": false,
          "internalType": "uint256",
          "name": "amount",
          "type": "uint256"
        }
      ],
      "name": "TokensMinted",
      "type": "event"
    },
    {
      "anonymous": false,
      "inputs": [
        {
          "indexed": true,
          "internalType": "address",
          "name": "from",
          "type": "address"
        },
        {
          "indexed": true,
          "internalType": "address",
          "name": "to",
          "type": "address"
        },
        {
          "indexed": false,
          "internalType": "uint256",
          "name": "value",
          "type": "uint256"
        }
      ],
      "name": "Transfer",
      "type": "event"
    },
    {
      "inputs": [
        {
          "internalType": "address",
          "name": "owner",
          "type": "address"
        },
        {
          "internalType": "address",
          "name": "spender",
          "type": "address"
        }
      ],
      "name": "allowance",
      "outputs": [
        {
          "internalType": "uint256",
          "name": "",
          "type": "uint256"
        }
      ],
      "stateMutability": "view",
      "type": "function"
    },
    {
      "inputs": [
        {
          "internalType": "address",
          "name": "spender",
          "type": "address"
        },
        {
          "internalType": "uint256",
          "name": "value",
          "type": "uint256"
        }
      ],
      "name": "approve",
      "outputs": [
        {
          "internalType": "bool",
          "name": "",
          "type": "bool"
        }
      ],
      "stateMutability": "nonpayable",
      "type": "function"
    },
    {
      "inputs": [
        {
          "internalType": "address",
          "name": "account",
          "type": "address"
        }
      ],
      "name": "balanceOf",
      "outputs": [
        {
          "internalType": "uint256",
          "name": "",
          "type": "uint256"
        }
      ],
      "stateMutability": "view",
      "type": "function"
    },
    {
      "inputs": [
        {
          "internalType": "address",
          "name": "from",
          "type": "address"
        },
        {
          "internalType": "uint256",
          "name": "amount",
          "type": "uint256"
        }
      ],
      "name": "burn",
      "outputs": [],
      "stateMutability": "nonpayable",
      "type": "function"
    },
    {
      "inputs": [],
      "name": "decimals",
      "outputs": [
        {
          "internalType": "uint8",
          "name": "",
          "type": "uint8"
        }
      ],
      "stateMutability": "pure",
      "type": "function"
    },
    {
      "inputs": [
        {
          "internalType": "address",
          "name": "to",
          "type": "address"
        },
        {
          "internalType": "uint256",
          "name": "amount",
          "type": "uint256"
        }
      ],
      "name": "mint",
      "outputs": [],
      "stateMutability": "nonpayable",
      "type": "function"
    },
    {
      "inputs": [],
      "name": "name",
      "outputs": [
        {
          "internalType": "string",
          "name": "",
          "type": "string"
        }
      ],
      "stateMutability": "view",
      "type": "function"
    },
    {
      "inputs": [],
      "name": "owner",
      "outputs": [
        {
          "internalType": "address",
          "name": "",
          "type": "address"
        }
      ],
      "stateMutability": "view",
      "type": "function"
    },
    {
      "inputs": [],
      "name": "renounceOwnership",
      "outputs": [],
      "stateMutability": "nonpayable",
      "type": "function"
    },
    {
      "inputs": [
        {
          "internalType": "address",
          "name": "_vault",
          "type": "address"
        }
      ],
      "name": "setVault",
      "outputs": [],
      "stateMutability": "nonpayable",
      "type": "function"
    },
    {
      "inputs": [],
      "name": "symbol",
      "outputs": [
        {
          "internalType": "string",
          "name": "",
          "type": "string"
        }
      ],
      "stateMutability": "view",
      "type": "function"
    },
    {
      "inputs": [],
      "name": "totalSupply",
      "outputs": [
        {
          "internalType": "uint256",
          "name": "",
          "type": "uint256"
        }
      ],
      "stateMutability": "view",
      "type": "function"
    },
    {
      "inputs": [
        {
          "internalType": "address",
          "name": "to",
          "type": "address"
        },
        {
          "internalType": "uint256",
          "name": "value",
          "type": "uint256"
        }
      ],
      "name": "transfer",
      "outputs": [
        {
          "internalType": "bool",
          "name": "",
          "type": "bool"
        }
      ],
      "stateMutability": "nonpayable",
      "type": "function"
    },
    {
      "inputs": [
        {
          "internalType": "address",
          "name": "from",
          "type": "address"
        },
        {
          "internalType": "address",
          "name": "to",
          "type": "address"
        },
        {
          "internalType": "uint256",
          "name": "value",
          "type": "uint256"
        }
      ],
      "name": "transferFrom",
      "outputs": [
        {
          "internalType": "bool",
          "name": "",
          "type": "bool"
        }
      ],
      "stateMutability": "nonpayable",
      "type": "function"
    },
    {
      "inputs": [
        {
          "internalType": "address",
          "name": "newOwner",
          "type": "address"
        }
      ],
      "name": "transferOwnership",
      "outputs": [],
      "stateMutability": "nonpayable",
      "type": "function"
    },
    {
      "inputs": [],
      "name": "vault",
      "outputs": [
        {
          "internalType": "address",
          "name": "",
          "type": "address"
        }
      ],
      "stateMutability": "view",
      "type": "function"
    }
  ],
  "bytecode": "0x608060405234801562000010575f80fd5b5060405162000d9d38038062000d9d833981016040819052620000339162000167565b816040518060400160405280600b81526020016a3121a927a8102a37b5b2b760a91b8152506040518060400160405280600581526020016406243524f560dc1b81525081600390816200008791906200023b565b5060046200009682826200023b565b5050506001600160a01b038116620000c757604051631e4fbdf760e01b81525f600482015260240160405180910390fd5b620000d281620000fa565b50600680546001600160a01b0319166001600160a01b03929092169190911790555062000307565b600580546001600160a01b038381166001600160a01b0319831681179093556040519116919082907f8be0079c531659141344cd1fd0a4f28419497f9722a3daafe3b4186f6b6457e0905f90a35050565b80516001600160a01b038116811462000162575f80fd5b919050565b5f806040838503121562000179575f80fd5b62000184836200014b565b915062000194602084016200014b565b90509250929050565b634e487b7160e01b5f52604160045260245ffd5b600181811c90821680620001c657607f821691505b602082108103620001e557634e487b7160e01b5f52602260045260245ffd5b50919050565b601f8211156200023657805f5260205f20601f840160051c81016020851015620002125750805b601f840160051c820191505b8181101562000233575f81556001016200021e565b50505b505050565b81516001600160401b038111156200025757620002576200019d565b6200026f81620002688454620001b1565b84620001eb565b602080601f831160018114620002a5575f84156200028d5750858301515b5f19600386901b1c1916600185901b178555620002ff565b5f85815260208120601f198616915b82811015620002d557888601518255948401946001909101908401620002b4565b5085821015620002f357878501515f19600388901b60f8161c191681555b505060018460011b0185555b505050505050565b610a8880620003155f395ff3fe608060405234801561000f575f80fd5b50600436106100fb575f3560e01c8063715018a611610093578063a9059cbb11610063578063a9059cbb1461020c578063dd62ed3e1461021f578063f2fde38b14610257578063fbfa77cf1461026a575f80fd5b8063715018a6146101c45780638da5cb5b146101cc57806395d89b41146101f15780639dc29fac146101f9575f80fd5b8063313ce567116100ce578063313ce5671461016557806340c10f19146101745780636817031b1461018957806370a082311461019c575f80fd5b806306fdde03146100ff578063095ea7b31461011d57806318160ddd1461014057806323b872dd14610152575b5f80fd5b61010761027d565b604051610114919061089f565b60405180910390f35b61013061012b366004610906565b61030d565b6040519015158152602001610114565b6002545b604051908152602001610114565b61013061016036600461092e565b610326565b60405160068152602001610114565b610187610182366004610906565b610349565b005b610187610197366004610967565b6103cd565b6101446101aa366004610967565b6001600160a01b03165f9081526020819052604090205490565b6101876103f7565b6005546001600160a01b03165b6040516001600160a01b039091168152602001610114565b61010761040a565b610187610207366004610906565b610419565b61013061021a366004610906565b610488565b61014461022d366004610987565b6001600160a01b039182165f90815260016020908152604080832093909416825291909152205490565b610187610265366004610967565b610495565b6006546101d9906001600160a01b031681565b60606003805461028c906109b8565b80601f01602080910402602001604051908101604052809291908181526020018280546102b8906109b8565b80156103035780601f106102da57610100808354040283529160200191610303565b820191905f5260205f20905b8154815290600101906020018083116102e657829003601f168201915b5050505050905090565b5f3361031a8185856104d2565b60019150505b92915050565b5f336103338582856104e4565b61033e858585610560565b506001949350505050565b6006546001600160a01b0316331461037c5760405162461bcd60e51b8152600401610373906109f0565b60405180910390fd5b61038682826105bd565b816001600160a01b03167f3f2c9d57c068687834f0de942a9babb9e5acab57d516d3480a3c16ee165a4273826040516103c191815260200190565b60405180910390a25050565b6103d56105f5565b600680546001600160a01b0319166001600160a01b0392909216919091179055565b6103ff6105f5565b6104085f610622565b565b60606004805461028c906109b8565b6006546001600160a01b031633146104435760405162461bcd60e51b8152600401610373906109f0565b61044d8282610673565b816001600160a01b03167ffd38818f5291bf0bb3a2a48aadc06ba8757865d1dabd804585338aab3009dcb6826040516103c191815260200190565b5f3361031a818585610560565b61049d6105f5565b6001600160a01b0381166104c657604051631e4fbdf760e01b81525f6004820152602401610373565b6104cf81610622565b50565b6104df83838360016106a7565b505050565b6001600160a01b038381165f908152600160209081526040808320938616835292905220545f1981101561055a578181101561054c57604051637dc7a0d960e11b81526001600160a01b03841660048201526024810182905260448101839052606401610373565b61055a84848484035f6106a7565b50505050565b6001600160a01b03831661058957604051634b637e8f60e11b81525f6004820152602401610373565b6001600160a01b0382166105b25760405163ec442f0560e01b81525f6004820152602401610373565b6104df838383610779565b6001600160a01b0382166105e65760405163ec442f0560e01b81525f6004820152602401610373565b6105f15f8383610779565b5050565b6005546001600160a01b031633146104085760405163118cdaa760e01b8152336004820152602401610373565b600580546001600160a01b038381166001600160a01b0319831681179093556040519116919082907f8be0079c531659141344cd1fd0a4f28419497f9722a3daafe3b4186f6b6457e0905f90a35050565b6001600160a01b03821661069c57604051634b637e8f60e11b81525f6004820152602401610373565b6105f1825f83610779565b6001600160a01b0384166106d05760405163e602df0560e01b81525f6004820152602401610373565b6001600160a01b0383166106f957604051634a1406b160e11b81525f6004820152602401610373565b6001600160a01b038085165f908152600160209081526040808320938716835292905220829055801561055a57826001600160a01b0316846001600160a01b03167f8c5be1e5ebec7d5bd14f71427d1e84f3dd0314c0f7b2291e5b200ac8c7c3b9258460405161076b91815260200190565b60405180910390a350505050565b6001600160a01b0383166107a3578060025f8282546107989190610a33565b909155506108139050565b6001600160a01b0383165f90815260208190526040902054818110156107f55760405163391434e360e21b81526001600160a01b03851660048201526024810182905260448101839052606401610373565b6001600160a01b0384165f9081526020819052604090209082900390555b6001600160a01b03821661082f5760028054829003905561084d565b6001600160a01b0382165f9081526020819052604090208054820190555b816001600160a01b0316836001600160a01b03167fddf252ad1be2c89b69c2b068fc378daa952ba7f163c4a11628f55a4df523b3ef8360405161089291815260200190565b60405180910390a3505050565b5f602080835283518060208501525f5b818110156108cb578581018301518582016040015282016108af565b505f604082860101526040601f19601f8301168501019250505092915050565b80356001600160a01b0381168114610901575f80fd5b919050565b5f8060408385031215610917575f80fd5b610920836108eb565b946020939093013593505050565b5f805f60608486031215610940575f80fd5b610949846108eb565b9250610957602085016108eb565b9150604084013590509250925092565b5f60208284031215610977575f80fd5b610980826108eb565b9392505050565b5f8060408385031215610998575f80fd5b6109a1836108eb565b91506109af602084016108eb565b90509250929050565b600181811c908216806109cc57607f821691505b6020821081036109ea57634e487b7160e01b5f52602260045260245ffd5b50919050565b60208082526023908201527f6243524f50546f6b656e3a2063616c6c6572206973206e6f74207468652076616040820152621d5b1d60ea1b606082015260800190565b8082018082111561032057634e487b7160e01b5f52601160045260245ffdfea264697066735822122019d02159175a9075a3cbceb0cf9cd08f34c8d810fa6c4d8708046fa4929eec7a64736f6c63430008180033",
  "linkReferences": {},
  "deployedLinkReferences": {}
}