{
  "_format": "hh-sol-artifact-1",
  "contractName": "CropVault",
  "sourceName": "contracts/CropVault.sol",
  "abi": [
    {
      "inputs": [
        {
          "internalType": "address",
          "name": "_owner",
          "type": "address"
        },
        {
          "internalType": "address",
          "name": "_usdc",
          "type": "address"
        },
        {
          "internalType": "address",
          "name": "_cropNFT",
          "type": "address"
        },
        {
          "internalType": "address",
          "name": "_oracle",
          "type": "address"
        }
      ],
      "stateMutability": "nonpayable",
      "type": "constructor"
    },
    {
      "inputs": [
        {
          "internalType": "address",
          "name": "owner",
          "type": "address"
        }
      ],
      "name": "OwnableInvalidOwner",
      "type": "error"
    },
    {
      "inputs": [
        {
          "internalType": "address",
          "name": "account",
          "type": "address"
        }
      ],
      "name": "OwnableUnauthorizedAccount",
      "type": "error"
    },
    {
      "inputs": [],
      "name": "ReentrancyGuardReentrantCall",
      "type": "error"
    },
    {
      "anonymous": false,
      "inputs": [
        {
          "indexed": false,
          "internalType": "uint256",
          "name": "reserveAvailable",
          "type": "uint256"
        }
      ],
      "name": "CropDefaulted",
      "type": "event"
    },
    {
      "anonymous": false,
      "inputs": [
        {
          "indexed": false,
          "internalType": "uint256",
          "name": "totalPayout",
          "type": "uint256"
        },
        {
          "indexed": false,
          "internalType": "uint256",
          "name": "yieldAmount",
          "type": "uint256"
        }
      ],
      "name": "CropLiquidated",
      "type": "event"
    },
    {
      "anonymous": false,
      "inputs": [
        {
          "indexed": false,
          "internalType": "uint256",
          "name": "totalRaised",
          "type": "uint256"
        },
        {
          "indexed": false,
          "internalType": "uint256",
          "name": "reserveAmount",
          "type": "uint256"
        },
        {
          "indexed": false,
          "internalType": "uint256",
          "name": "disbursedToFarmer",
          "type": "uint256"
        }
      ],
      "name": "FundingComplete",
      "type": "event"
    },
    {
      "anonymous": false,
      "inputs": [
        {
          "indexed": true,
          "internalType": "address",
          "name": "investor",
          "type": "address"
        },
        {
          "indexed": false,
          "internalType": "uint256",
          "name": "usdcAmount",
          "type": "uint256"
        },
        {
          "indexed": false,
          "internalType": "uint256",
          "name": "bCropMinted",
          "type": "uint256"
        }
      ],
      "name": "InvestmentReceived",
      "type": "event"
    },
    {
      "anonymous": false,
      "inputs": [
        {
          "indexed": true,
          "internalType": "address",
          "name": "previousOwner",
          "type": "address"
        },
        {
          "indexed": true,
          "internalType": "address",
          "name": "newOwner",
          "type": "address"
        }
      ],
      "name": "OwnershipTransferred",
      "type": "event"
    },
    {
      "anonymous": false,
      "inputs": [
        {
          "indexed": true,
          "internalType": "address",
          "name": "investor",
          "type": "address"
        },
        {
          "indexed": false,
          "internalType": "uint256",
          "name": "usdcAmount",
          "type": "uint256"
        }
      ],
      "name": "ReturnsClaimed",
      "type": "event"
    },
    {
      "anonymous": false,
      "inputs": [
        {
          "indexed": true,
          "internalType": "uint256",
          "name": "cropTokenId",
          "type": "uint256"
        },
        {
          "indexed": false,
          "internalType": "uint256",
          "name": "fundingGoal",
          "type": "uint256"
        },
        {
          "indexed": false,
          "internalType": "uint256",
          "name": "deadline",
          "type": "uint256"
        }
      ],
      "name": "VaultOpened",
      "type": "event"
    },
    {
      "inputs": [],
      "name": "bCrop",
      "outputs": [
        {
          "internalType": "contract bCROPToken",
          "name": "",
          "type": "address"
        }
      ],
      "stateMutability": "view",
      "type": "function"
    },
    {
      "inputs": [
        {
          "internalType": "address",
          "name": "investor",
          "type": "address"
        }
      ],
      "name": "claimReturns",
      "outputs": [],
      "stateMutability": "nonpayable",
      "type": "function"
    },
    {
      "inputs": [],
      "name": "config",
      "outputs": [
        {
          "internalType": "uint256",
          "name": "cropTokenId",
          "type": "uint256"
        },
        {
          "internalType": "uint256",
          "name": "fundingGoal",
          "type": "uint256"
        },
        {
          "internalType": "uint256",
          "name": "fundingDeadline",
          "type": "uint256"
        },
        {
          "internalType": "uint256",
          "name": "reservePercent",
          "type": "uint256"
        },
        {
          "internalType": "uint256",
          "name": "yieldPercent",
          "type": "uint256"
        },
        {
          "internalType": "uint256",
          "name": "totalRaised",
          "type": "uint256"
        },
        {
          "internalType": "enum CropVault.VaultStatus",
          "name": "status",
          "type": "uint8"
        }
      ],
      "stateMutability": "view",
      "type": "function"
    },
    {
      "inputs": [],
      "name": "cropNFT",
      "outputs": [
        {
          "internalType": "contract IERC721",
          "name": "",
          "type": "address"
        }
      ],
      "stateMutability": "view",
      "type": "function"
    },
    {
      "inputs": [
        {
          "internalType": "uint256",
          "name": "usdcAmount",
          "type": "uint256"
        },
        {
          "internalType": "address",
          "name": "investor",
          "type": "address"
        }
      ],
      "name": "deposit",
      "outputs": [],
      "stateMutability": "nonpayable",
      "type": "function"
    },
    {
      "inputs": [],
      "name": "farmerAddress",
      "outputs": [
        {
          "internalType": "address",
          "name": "",
          "type": "address"
        }
      ],
      "stateMutability": "view",
      "type": "function"
    },
    {
      "inputs": [
        {
          "internalType": "uint256",
          "name": "index",
          "type": "uint256"
        }
      ],
      "name": "getInvestorAt",
      "outputs": [
        {
          "internalType": "address",
          "name": "",
          "type": "address"
        }
      ],
      "stateMutability": "view",
      "type": "function"
    },
    {
      "inputs": [
        {
          "internalType": "address",
          "name": "investor",
          "type": "address"
        }
      ],
      "name": "getInvestorBalance",
      "outputs": [
        {
          "internalType": "uint256",
          "name": "invested",
          "type": "uint256"
        },
        {
          "internalType": "uint256",
          "name": "bCropHeld",
          "type": "uint256"
        }
      ],
      "stateMutability": "view",
      "type": "function"
    },
    {
      "inputs": [],
      "name": "getInvestorsCount",
      "outputs": [
        {
          "internalType": "uint256",
          "name": "",
          "type": "uint256"
        }
      ],
      "stateMutability": "view",
      "type": "function"
    },
    {
      "inputs": [],
      "name": "getVaultState",
      "outputs": [
        {
          "components": [
            {
              "internalType": "uint256",
              "name": "cropTokenId",
              "type": "uint256"
            },
            {
              "internalType": "uint256",
              "name": "fundingGoal",
              "type": "uint256"
            },
            {
              "internalType": "uint256",
              "name": "fundingDeadline",
              "type": "uint256"
            },
            {
              "internalType": "uint256",
              "name": "reservePercent",
              "type": "uint256"
            },
            {
              "internalType": "uint256",
              "name": "yieldPercent",
              "type": "uint256"
            },
            {
              "internalType": "uint256",
              "name": "totalRaised",
              "type": "uint256"
            },
            {
              "internalType": "enum CropVault.VaultStatus",
              "name": "status",
              "type": "uint8"
            }
          ],
          "internalType": "struct CropVault.VaultConfig",
          "name": "",
          "type": "tuple"
        }
      ],
      "stateMutability": "view",
      "type": "function"
    },
    {
      "inputs": [
        {
          "internalType": "address",
          "name": "",
          "type": "address"
        }
      ],
      "name": "investments",
      "outputs": [
        {
          "internalType": "uint256",
          "name": "",
          "type": "uint256"
        }
      ],
      "stateMutability": "view",
      "type": "function"
    },
    {
      "inputs": [
        {
          "internalType": "uint256",
          "name": "",
          "type": "uint256"
        }
      ],
      "name": "investors",
      "outputs": [
        {
          "internalType": "address",
          "name": "",
          "type": "address"
        }
      ],
      "stateMutability": "view",
      "type": "function"
    },
    {
      "inputs": [],
      "name": "liquidate",
      "outputs": [],
      "stateMutability": "nonpayable",
      "type": "function"
    },
    {
      "inputs": [
        {
          "internalType": "uint256",
          "name": "cropTokenId",
          "type": "uint256"
        },
        {
          "internalType": "uint256",
          "name": "fundingGoal",
          "type": "uint256"
        },
        {
          "internalType": "uint256",
          "name": "fundingDeadline",
          "type": "uint256"
        },
        {
          "internalType": "uint256",
          "name": "reservePercent",
          "type": "uint256"
        },
        {
          "internalType": "uint256",
          "name": "yieldPercent",
          "type": "uint256"
        },
        {
          "internalType": "address",
          "name": "bCropAddress",
          "type": "address"
        },
        {
          "internalType": "address",
          "name": "farmer",
          "type": "address"
        }
      ],
      "name": "openRound",
      "outputs": [],
      "stateMutability": "nonpayable",
      "type": "function"
    },
    {
      "inputs": [],
      "name": "oracle",
      "outputs": [
        {
          "internalType": "contract MockOracle",
          "name": "",
          "type": "address"
        }
      ],
      "stateMutability": "view",
      "type": "function"
    },
    {
      "inputs": [],
      "name": "owner",
      "outputs": [
        {
          "internalType": "address",
          "name": "",
          "type": "address"
        }
      ],
      "stateMutability": "view",
      "type": "function"
    },
    {
      "inputs": [],
      "name": "renounceOwnership",
      "outputs": [],
      "stateMutability": "nonpayable",
      "type": "function"
    },
    {
      "inputs": [
        {
          "internalType": "address",
          "name": "newOwner",
          "type": "address"
        }
      ],
      "name": "transferOwnership",
      "outputs": [],
      "stateMutability": "nonpayable",
      "type": "function"
    },
    {
      "inputs": [],
      "name": "triggerDefault",
      "outputs": [],
      "stateMutability": "nonpayable",
      "type": "function"
    },
    {
      "inputs": [],
      "name": "usdc",
      "outputs": [
        {
          "internalType": "contract IERC20",
          "name": "",
          "type": "address"
        }
      ],
      "stateMutability": "view",
      "type": "function"
    }
  ],
  "bytecode": "0x60e060405234801562000010575f80fd5b50604051620017153803806200171583398101604081905262000033916200011c565b836001600160a01b0381166200006257604051631e4fbdf760e01b81525f600482015260240160405180910390fd5b6200006d81620000b1565b5060017f9b779b17422d0df92223018b32b4d1fa46e071723d6817e2486d003becc55f00556001600160a01b0392831660805290821660a0521660c0525062000176565b5f80546001600160a01b038381166001600160a01b0319831681178455604051919092169283917f8be0079c531659141344cd1fd0a4f28419497f9722a3daafe3b4186f6b6457e09190a35050565b80516001600160a01b038116811462000117575f80fd5b919050565b5f805f806080858703121562000130575f80fd5b6200013b8562000100565b93506200014b6020860162000100565b92506200015b6040860162000100565b91506200016b6060860162000100565b905092959194509250565b60805160a05160c05161154a620001cb5f395f818161023c015281816106a7015261079101525f81816102d90152610e4201525f8181610155015281816105d101528181610b1f015261108e015261154a5ff3fe608060405234801561000f575f80fd5b5060043610610127575f3560e01c80637dc0d1d0116100a9578063cddb1ef81161006e578063cddb1ef8146102c1578063e2e9ae53146102d4578063ed21187a146102fb578063f2fde38b14610303578063f645029314610316575f80fd5b80637dc0d1d0146102375780638da5cb5b1461025e5780638f259b3c1461026e57806396b9886214610281578063b7b58b7f146102ae575f80fd5b80634a8c110a116100ef5780634a8c110a146101a75780635ea63913146101bc5780636e553f65146101e4578063715018a6146101f757806379502c55146101ff575f80fd5b806316af44531461012b578063175f83291461014057806328a07025146101485780633e413bee146101505780633feb5f2b14610194575b5f80fd5b61013e610139366004611218565b610329565b005b61013e61069c565b61013e610786565b6101777f000000000000000000000000000000000000000000000000000000000000000081565b6040516001600160a01b0390911681526020015b60405180910390f35b6101776101a2366004611238565b61086d565b6101af610895565b60405161018b9190611283565b6101cf6101ca366004611218565b610912565b6040805192835260208301919091520161018b565b61013e6101f23660046112d9565b610998565b61013e610d13565b6002546003546004546005546006546007546008546102249695949392919060ff1687565b60405161018b9796959493929190611303565b6101777f000000000000000000000000000000000000000000000000000000000000000081565b5f546001600160a01b0316610177565b600154610177906001600160a01b031681565b6102a061028f366004611218565b600a6020525f908152604090205481565b60405190815260200161018b565b600954610177906001600160a01b031681565b61013e6102cf366004611344565b610d26565b6101777f000000000000000000000000000000000000000000000000000000000000000081565b600b546102a0565b61013e610311366004611218565b610f73565b610177610324366004611238565b610fad565b610331610fdb565b610339610ff6565b600360085460ff1660048111156103525761035261124f565b14806103745750600460085460ff1660048111156103725761037261124f565b145b6103d55760405162461bcd60e51b815260206004820152602760248201527f43726f705661756c743a207661756c74206e6f7420696e20636c61696d61626c6044820152666520737461746560c81b60648201526084015b60405180910390fd5b6001546040516370a0823160e01b81526001600160a01b0383811660048301525f9216906370a0823190602401602060405180830381865afa15801561041d573d5f803e3d5ffd5b505050506040513d601f19601f8201168201806040525081019061044191906113a2565b90505f81116104a55760405162461bcd60e51b815260206004820152602a60248201527f43726f705661756c743a20696e766573746f7220686173206e6f206243524f5060448201526920746f2072656465656d60b01b60648201526084016103cc565b5f600360085460ff1660048111156104bf576104bf61124f565b0361050f576006545f906064906104d990620f42406113cd565b6104e391906113ea565b9050620f42406104f382856113cd565b6104fd91906113ea565b6105079084611409565b91505061054c565b6005546007545f9160649161052491906113cd565b61052e91906113ea565b60075490915061053e82856113cd565b61054891906113ea565b9150505b600154604051632770a7eb60e21b81526001600160a01b0385811660048301526024820185905290911690639dc29fac906044015f604051808303815f87803b158015610597575f80fd5b505af11580156105a9573d5f803e3d5ffd5b505060405163a9059cbb60e01b81526001600160a01b038681166004830152602482018590527f000000000000000000000000000000000000000000000000000000000000000016925063a9059cbb91506044016020604051808303815f875af1158015610619573d5f803e3d5ffd5b505050506040513d601f19601f8201168201806040525081019061063d919061141c565b50826001600160a01b03167fb004f7aadbfea4b10f6f35375d79abef1a89e2583430bf75c24bf2f3dca7cfd58260405161067991815260200190565b60405180910390a2505061069960015f805160206114f583398151915255565b50565b336001600160a01b037f000000000000000000000000000000000000000000000000000000000000000016146106e45760405162461bcd60e51b81526004016103cc9061143b565b60018060085460ff1660048111156106fe576106fe61124f565b1461071b5760405162461bcd60e51b81526004016103cc9061147e565b6008805460ff191660041790556005546007545f9160649161073d91906113cd565b61074791906113ea565b90507fa24ad2d40f5304478277f643a045d236a2fac96a2b6216aa5e07e33d36eecb578160405161077a91815260200190565b60405180910390a15050565b336001600160a01b037f000000000000000000000000000000000000000000000000000000000000000016146107ce5760405162461bcd60e51b81526004016103cc9061143b565b60018060085460ff1660048111156107e8576107e861124f565b146108055760405162461bcd60e51b81526004016103cc9061147e565b6008805460ff191660031790556006546007545f9160649161082791906113cd565b61083191906113ea565b60075460408051918252602082018390529192507f43ee7dd576b8d6392324cc58b552671ecf4e8a34f383764cb88dd2468edfcbfb910161077a565b600b818154811061087c575f80fd5b5f918252602090912001546001600160a01b0316905081565b61089d6111b7565b6040805160e081018252600280548252600354602083015260048054938301939093526005546060830152600654608083015260075460a08301526008549192909160c084019160ff909116908111156108f9576108f961124f565b600481111561090a5761090a61124f565b905250919050565b6001600160a01b038181165f818152600a60205260408082205460015491516370a0823160e01b815260048101949094529391929116906370a0823190602401602060405180830381865afa15801561096d573d5f803e3d5ffd5b505050506040513d601f19601f8201168201806040525081019061099191906113a2565b9050915091565b6109a0610fdb565b6109a8610ff6565b5f8060085460ff1660048111156109c1576109c161124f565b146109de5760405162461bcd60e51b81526004016103cc9061147e565b600454421115610a3b5760405162461bcd60e51b815260206004820152602260248201527f43726f705661756c743a2066756e64696e6720646561646c696e652070617373604482015261195960f21b60648201526084016103cc565b5f8311610a9e5760405162461bcd60e51b815260206004820152602b60248201527f43726f705661756c743a20616d6f756e74206d7573742062652067726561746560448201526a72207468616e207a65726f60a81b60648201526084016103cc565b600354600754610aaf908590611409565b1115610afd5760405162461bcd60e51b815260206004820152601f60248201527f43726f705661756c743a20657863656564732066756e64696e6720676f616c0060448201526064016103cc565b6040516323b872dd60e01b8152336004820152306024820152604481018490527f00000000000000000000000000000000000000000000000000000000000000006001600160a01b0316906323b872dd906064016020604051808303815f875af1158015610b6d573d5f803e3d5ffd5b505050506040513d601f19601f82011682018060405250810190610b91919061141c565b506001546040516340c10f1960e01b81526001600160a01b03848116600483015260248201869052909116906340c10f19906044015f604051808303815f87803b158015610bdd575f80fd5b505af1158015610bef573d5f803e3d5ffd5b505050506001600160a01b0382165f908152600a60205260408120549003610c5c57600b80546001810182555f919091527f0175b7a638427703f0dbe7bb9bbf987a2551717b34e79f33b5b1008d1fa01db90180546001600160a01b0319166001600160a01b0384161790555b6001600160a01b0382165f908152600a602052604081208054859290610c83908490611409565b9091555050600780548491905f90610c9c908490611409565b909155505060408051848152602081018590526001600160a01b038416917f0240c371659c45898826a7ba2332942b172ae8c1b47c60e74e1066383b1b6c09910160405180910390a260035460075403610cf857610cf8611022565b50610d0f60015f805160206114f583398151915255565b5050565b610d1b610ff6565b610d245f611139565b565b610d2e610ff6565b60035415610d7e5760405162461bcd60e51b815260206004820152601f60248201527f43726f705661756c743a20726f756e6420616c7265616479206f70656e65640060448201526064016103cc565b601e841115610dcf5760405162461bcd60e51b815260206004820152601b60248201527f43726f705661756c743a207265736572766520746f6f2068696768000000000060448201526064016103cc565b6064831115610e205760405162461bcd60e51b815260206004820152601960248201527f43726f705661756c743a207969656c6420746f6f20686967680000000000000060448201526064016103cc565b6040516323b872dd60e01b8152336004820152306024820152604481018890527f00000000000000000000000000000000000000000000000000000000000000006001600160a01b0316906323b872dd906064015f604051808303815f87803b158015610e8b575f80fd5b505af1158015610e9d573d5f803e3d5ffd5b5050600180546001600160a01b038681166001600160a01b031992831617909255600980549286169290911691909117905550506040805160e081018252888152602080820189905281830188905260608201879052608082018690525f60a0830181905260c090920182905260028a905560038990556004889055600587905560068690556007919091556008805460ff191690558151888152908101879052815189927f1c3fe8b385f618e86f54435915dcffa4723f3009dd1b4d7b0de205e8e7cd2d4a928290030190a250505050505050565b610f7b610ff6565b6001600160a01b038116610fa457604051631e4fbdf760e01b81525f60048201526024016103cc565b61069981611139565b5f600b8281548110610fc157610fc16114cd565b5f918252602090912001546001600160a01b031692915050565b610fe3611188565b60025f805160206114f583398151915255565b5f546001600160a01b03163314610d245760405163118cdaa760e01b81523360048201526024016103cc565b6008805460ff191660011790556005546007545f9160649161104491906113cd565b61104e91906113ea565b90505f8160026005015461106291906114e1565b60095460405163a9059cbb60e01b81526001600160a01b039182166004820152602481018390529192507f0000000000000000000000000000000000000000000000000000000000000000169063a9059cbb906044016020604051808303815f875af11580156110d4573d5f803e3d5ffd5b505050506040513d601f19601f820116820180604052508101906110f8919061141c565b50600754604080519182526020820184905281018290527fbd04b0e879e6a84a288e6660cfcc2e8337035a9ad3343ff360c4aefb45576aae9060600161077a565b5f80546001600160a01b038381166001600160a01b0319831681178455604051919092169283917f8be0079c531659141344cd1fd0a4f28419497f9722a3daafe3b4186f6b6457e09190a35050565b5f805160206114f583398151915254600203610d2457604051633ee5aeb560e01b815260040160405180910390fd5b6040518060e001604052805f81526020015f81526020015f81526020015f81526020015f81526020015f81526020015f60048111156111f8576111f861124f565b905290565b80356001600160a01b0381168114611213575f80fd5b919050565b5f60208284031215611228575f80fd5b611231826111fd565b9392505050565b5f60208284031215611248575f80fd5b5035919050565b634e487b7160e01b5f52602160045260245ffd5b6005811061127f57634e487b7160e01b5f52602160045260245ffd5b9052565b5f60e082019050825182526020830151602083015260408301516040830152606083015160608301526080830151608083015260a083015160a083015260c08301516112d260c0840182611263565b5092915050565b5f80604083850312156112ea575f80fd5b823591506112fa602084016111fd565b90509250929050565b5f60e0820190508882528760208301528660408301528560608301528460808301528360a083015261133860c0830184611263565b98975050505050505050565b5f805f805f805f60e0888a03121561135a575f80fd5b873596506020880135955060408801359450606088013593506080880135925061138660a089016111fd565b915061139460c089016111fd565b905092959891949750929550565b5f602082840312156113b2575f80fd5b5051919050565b634e487b7160e01b5f52601160045260245ffd5b80820281158282048414176113e4576113e46113b9565b92915050565b5f8261140457634e487b7160e01b5f52601260045260245ffd5b500490565b808201808211156113e4576113e46113b9565b5f6020828403121561142c575f80fd5b81518015158114611231575f80fd5b60208082526023908201527f43726f705661756c743a2063616c6c6572206973206e6f7420746865206f7261604082015262636c6560e81b606082015260800190565b6020808252602f908201527f43726f705661756c743a20696e76616c6964207661756c74207374617475732060408201526e3337b9103a3434b99030b1ba34b7b760891b606082015260800190565b634e487b7160e01b5f52603260045260245ffd5b818103818111156113e4576113e46113b956fe9b779b17422d0df92223018b32b4d1fa46e071723d6817e2486d003becc55f00a26469706673582212208eb1aca371913ac956951e25cb452523bcc84450d34408cec1e45cc605d5f1c864736f6c63430008180033",
  "linkReferences": {},
  "deployedLinkReferences": {}
}