{
  "_format": "hh-sol-artifact-1",
  "contractName": "MockOracle",
  "sourceName": "contracts/MockOracle.sol",
  "abi": [
    {
      "inputs": [
        {
          "internalType": "address",
          "name": "initialOwner",
          "type": "address"
        },
        {
          "internalType": "uint64",
          "name": "_subId",
          "type": "uint64"
        }
      ],
      "stateMutability": "nonpayable",
      "type": "constructor"
    },
    {
      "inputs": [],
      "name": "EmptyArgs",
      "type": "error"
    },
    {
      "inputs": [],
      "name": "EmptySource",
      "type": "error"
    },
    {
      "inputs": [],
      "name": "NoInlineSecrets",
      "type": "error"
    },
    {
      "inputs": [],
      "name": "OnlyRouterCanFulfill",
      "type": "error"
    },
    {
      "inputs": [
        {
          "internalType": "address",
          "name": "owner",
          "type": "address"
        }
      ],
      "name": "OwnableInvalidOwner",
      "type": "error"
    },
    {
      "inputs": [
        {
          "internalType": "address",
          "name": "account",
          "type": "address"
        }
      ],
      "name": "OwnableUnauthorizedAccount",
      "type": "error"
    },
    {
      "anonymous": false,
      "inputs": [
        {
          "indexed": true,
          "internalType": "address",
          "name": "previousOwner",
          "type": "address"
        },
        {
          "indexed": true,
          "internalType": "address",
          "name": "newOwner",
          "type": "address"
        }
      ],
      "name": "OwnershipTransferred",
      "type": "event"
    },
    {
      "anonymous": false,
      "inputs": [
        {
          "indexed": true,
          "internalType": "bytes32",
          "name": "id",
          "type": "bytes32"
        }
      ],
      "name": "RequestFulfilled",
      "type": "event"
    },
    {
      "anonymous": false,
      "inputs": [
        {
          "indexed": true,
          "internalType": "bytes32",
          "name": "id",
          "type": "bytes32"
        }
      ],
      "name": "RequestSent",
      "type": "event"
    },
    {
      "anonymous": false,
      "inputs": [
        {
          "indexed": true,
          "internalType": "address",
          "name": "vault",
          "type": "address"
        },
        {
          "indexed": false,
          "internalType": "enum MockOracle.CropState",
          "name": "newState",
          "type": "uint8"
        }
      ],
      "name": "StateAdvanced",
      "type": "event"
    },
    {
      "anonymous": false,
      "inputs": [
        {
          "indexed": true,
          "internalType": "address",
          "name": "vault",
          "type": "address"
        },
        {
          "indexed": false,
          "internalType": "bool",
          "name": "drought",
          "type": "bool"
        }
      ],
      "name": "WeatherFulfilled",
      "type": "event"
    },
    {
      "anonymous": false,
      "inputs": [
        {
          "indexed": true,
          "internalType": "address",
          "name": "vault",
          "type": "address"
        },
        {
          "indexed": true,
          "internalType": "bytes32",
          "name": "requestId",
          "type": "bytes32"
        }
      ],
      "name": "WeatherRequested",
      "type": "event"
    },
    {
      "inputs": [
        {
          "internalType": "address",
          "name": "vault",
          "type": "address"
        },
        {
          "internalType": "bool",
          "name": "success",
          "type": "bool"
        }
      ],
      "name": "advanceState",
      "outputs": [],
      "stateMutability": "nonpayable",
      "type": "function"
    },
    {
      "inputs": [
        {
          "internalType": "address",
          "name": "vault",
          "type": "address"
        }
      ],
      "name": "getState",
      "outputs": [
        {
          "internalType": "enum MockOracle.CropState",
          "name": "",
          "type": "uint8"
        }
      ],
      "stateMutability": "view",
      "type": "function"
    },
    {
      "inputs": [
        {
          "internalType": "bytes32",
          "name": "requestId",
          "type": "bytes32"
        },
        {
          "internalType": "bytes",
          "name": "response",
          "type": "bytes"
        },
        {
          "internalType": "bytes",
          "name": "err",
          "type": "bytes"
        }
      ],
      "name": "handleOracleFulfillment",
      "outputs": [],
      "stateMutability": "nonpayable",
      "type": "function"
    },
    {
      "inputs": [],
      "name": "owner",
      "outputs": [
        {
          "internalType": "address",
          "name": "",
          "type": "address"
        }
      ],
      "stateMutability": "view",
      "type": "function"
    },
    {
      "inputs": [
        {
          "internalType": "address",
          "name": "vault",
          "type": "address"
        }
      ],
      "name": "registerVault",
      "outputs": [],
      "stateMutability": "nonpayable",
      "type": "function"
    },
    {
      "inputs": [],
      "name": "renounceOwnership",
      "outputs": [],
      "stateMutability": "nonpayable",
      "type": "function"
    },
    {
      "inputs": [
        {
          "internalType": "bytes32",
          "name": "",
          "type": "bytes32"
        }
      ],
      "name": "requestToVault",
      "outputs": [
        {
          "internalType": "address",
          "name": "",
          "type": "address"
        }
      ],
      "stateMutability": "view",
      "type": "function"
    },
    {
      "inputs": [
        {
          "internalType": "address",
          "name": "vault",
          "type": "address"
        },
        {
          "internalType": "string",
          "name": "lat",
          "type": "string"
        },
        {
          "internalType": "string",
          "name": "lon",
          "type": "string"
        }
      ],
      "name": "requestWeatherData",
      "outputs": [
        {
          "internalType": "bytes32",
          "name": "requestId",
          "type": "bytes32"
        }
      ],
      "stateMutability": "nonpayable",
      "type": "function"
    },
    {
      "inputs": [],
      "name": "subscriptionId",
      "outputs": [
        {
          "internalType": "uint64",
          "name": "",
          "type": "uint64"
        }
      ],
      "stateMutability": "view",
      "type": "function"
    },
    {
      "inputs": [
        {
          "internalType": "address",
          "name": "newOwner",
          "type": "address"
        }
      ],
      "name": "transferOwnership",
      "outputs": [],
      "stateMutability": "nonpayable",
      "type": "function"
    },
    {
      "inputs": [
        {
          "internalType": "uint64",
          "name": "_subId",
          "type": "uint64"
        }
      ],
      "name": "updateSubscriptionId",
      "outputs": [],
      "stateMutability": "nonpayable",
      "type": "function"
    },
    {
      "inputs": [
        {
          "internalType": "address",
          "name": "",
          "type": "address"
        }
      ],
      "name": "vaultStates",
      "outputs": [
        {
          "internalType": "enum MockOracle.CropState",
          "name": "",
          "type": "uint8"
        }
      ],
      "stateMutability": "view",
      "type": "function"
    }
  ],
  "bytecode": "0x60a060405234801562000010575f80fd5b5060405162001beb38038062001beb8339810160408190526200003391620000fc565b73b83e47c2bc239b3bf370bc41e1459a34b41238d0608052816001600160a01b0381166200007a57604051631e4fbdf760e01b81525f600482015260240160405180910390fd5b6200008581620000ad565b50600280546001600160401b0319166001600160401b0392909216919091179055506200014d565b5f80546001600160a01b038381166001600160a01b0319831681178455604051919092169283917f8be0079c531659141344cd1fd0a4f28419497f9722a3daafe3b4186f6b6457e09190a35050565b5f80604083850312156200010e575f80fd5b82516001600160a01b038116811462000125575f80fd5b60208401519092506001600160401b038116811462000142575f80fd5b809150509250929050565b608051611a7e6200016d5f395f81816102200152610dc60152611a7e5ff3fe608060405234801561000f575f80fd5b50600436106100b1575f3560e01c8063715018a61161006e578063715018a61461017a5780637a59672e146101825780638da5cb5b146101a3578063a9a6f5fc146101c7578063c8f6fcdf146101da578063f2fde38b14610202575f80fd5b806309c1ba2e146100b55780630ca76175146100e557806314b1dd1b146100fa5780631bab58f51461010d5780635f49202f1461014557806367ccd1cb14610167575b5f80fd5b6002546100c8906001600160401b031681565b6040516001600160401b0390911681526020015b60405180910390f35b6100f86100f3366004611441565b610215565b005b6100f86101083660046114a8565b610298565b61013861011b3660046114e9565b6001600160a01b03165f9081526001602052604090205460ff1690565b6040516100dc9190611516565b6101386101533660046114e9565b60016020525f908152604090205460ff1681565b6100f86101753660046114e9565b6102c3565b6100f86102eb565b610195610190366004611580565b6102fe565b6040519081526020016100dc565b5f546001600160a01b03165b6040516001600160a01b0390911681526020016100dc565b6100f86101d53660046115fa565b6105f2565b6101af6101e8366004611633565b60036020525f90815260409020546001600160a01b031681565b6100f86102103660046114e9565b61080b565b336001600160a01b037f0000000000000000000000000000000000000000000000000000000000000000161461025e5760405163c6829f8360e01b815260040160405180910390fd5b610269838383610848565b60405183907f85e1543bf2f84fe80c6badbce3648c8539ad1df4d2b3d822938ca0538be727e6905f90a2505050565b6102a0610a4a565b6002805467ffffffffffffffff19166001600160401b0392909216919091179055565b6102cb610a4a565b6001600160a01b03165f908152600160205260409020805460ff19169055565b6102f3610a4a565b6102fc5f610a76565b565b5f610307610a4a565b6002546001600160401b03165f036103845760405162461bcd60e51b815260206004820152603560248201527f4f7261636c653a20436861696e6c696e6b206e6f20636f6e666967757261646f6044820152742028737562736372697074696f6e4964203d20302960581b60648201526084015b60405180910390fd5b60026001600160a01b0387165f9081526001602052604090205460ff1660048111156103b2576103b2611502565b146104115760405162461bcd60e51b815260206004820152602960248201527f4f7261636c653a207661756c74206465626520657374617220656e2065737461604482015268646f204d415455524560b81b606482015260840161037b565b61044f6040805160e08101909152805f81526020015f81526020015f8152602001606081526020016060815260200160608152602001606081525090565b6104756040518061020001604052806101e081526020016118696101e091398290610ac5565b604080516002808252606082019092525f91816020015b606081526020019060019003908161048c57905050905086868080601f0160208091040260200160405190810160405280939291908181526020018383808284375f9201829052508551869450909250151590506104ec576104ec61164a565b602002602001018190525084848080601f0160208091040260200160405190810160405280939291908181526020018383808284375f920191909152505083518492506001915081106105415761054161164a565b60209081029190910101526105568282610ad5565b61059161056283610afe565b6002546001600160401b0316620493e07566756e2d657468657265756d2d7365706f6c69612d3160501b610dc2565b5f8181526003602052604080822080546001600160a01b0319166001600160a01b038d169081179091559051929550859290917f2293acc5c5b9082c1d6da0592c6f8b7704fc74694384ee247dfb26a012ca68a291a3505095945050505050565b6105fa610a4a565b6001600160a01b0382165f9081526001602052604090205460ff16600381600481111561062957610629611502565b141580156106495750600481600481111561064657610646611502565b14155b6106a15760405162461bcd60e51b8152602060048201526024808201527f4f7261636c653a207661756c7420697320696e2061207465726d696e616c20736044820152637461746560e01b606482015260840161037b565b5f60028260048111156106b6576106b6611502565b036107545782156107185760039050836001600160a01b03166328a070256040518163ffffffff1660e01b81526004015f604051808303815f87803b1580156106fd575f80fd5b505af115801561070f573d5f803e3d5ffd5b50505050610788565b60049050836001600160a01b031663175f83296040518163ffffffff1660e01b81526004015f604051808303815f87803b1580156106fd575f80fd5b81600481111561076657610766611502565b610771906001611672565b60ff16600481111561078557610785611502565b90505b6001600160a01b0384165f9081526001602081905260409091208054839260ff19909116908360048111156107bf576107bf611502565b0217905550836001600160a01b03167f3c0dd05803da5e7753e2213fa206c3616975d1897e5ab9e6c098093c2c7a148e826040516107fd9190611516565b60405180910390a250505050565b610813610a4a565b6001600160a01b03811661083c57604051631e4fbdf760e01b81525f600482015260240161037b565b61084581610a76565b50565b5f838152600360205260409020546001600160a01b0316806108ac5760405162461bcd60e51b815260206004820152601d60248201527f4f7261636c653a2072657175657374496420646573636f6e6f6369646f000000604482015260640161037b565b5f838060200190518101906108c1919061168b565b905060018114801561093d576001600160a01b0383165f81815260016020526040808220805460ff19166004908117909155815163175f832960e01b8152915163175f8329938383019390929082900301818387803b158015610922575f80fd5b505af1158015610934573d5f803e3d5ffd5b505050506109a8565b6001600160a01b0383165f81815260016020526040808220805460ff1916600317905580516328a0702560e01b815290516328a070259260048084019391929182900301818387803b158015610991575f80fd5b505af11580156109a3573d5f803e3d5ffd5b505050505b826001600160a01b03167f68f287854812a38f4955fd7c0b9e4458632374932549915573ad921f4eac4d68826040516109e5911515815260200190565b60405180910390a26001600160a01b0383165f81815260016020526040908190205490517f3c0dd05803da5e7753e2213fa206c3616975d1897e5ab9e6c098093c2c7a148e91610a3a9160ff90911690611516565b60405180910390a2505050505050565b5f546001600160a01b031633146102fc5760405163118cdaa760e01b815233600482015260240161037b565b5f80546001600160a01b038381166001600160a01b0319831681178455604051919092169283917f8be0079c531659141344cd1fd0a4f28419497f9722a3daafe3b4186f6b6457e09190a35050565b610ad1825f8084610e8f565b5050565b80515f03610af65760405163fe936cb760e01b815260040160405180910390fd5b60a090910152565b60605f610b0c610100610f0c565b9050610b456040518060400160405280600c81526020016b31b7b232a637b1b0ba34b7b760a11b81525082610f2c90919063ffffffff16565b8251610b63906002811115610b5c57610b5c611502565b8290610f4a565b6040805180820190915260088152676c616e677561676560c01b6020820152610b8d908290610f2c565b6040830151610ba4908015610b5c57610b5c611502565b604080518082019091526006815265736f7572636560d01b6020820152610bcc908290610f2c565b6060830151610bdc908290610f2c565b60a08301515115610c67576040805180820190915260048152636172677360e01b6020820152610c0d908290610f2c565b610c1681610f83565b5f5b8360a0015151811015610c5d57610c558460a001518281518110610c3e57610c3e61164a565b602002602001015183610f2c90919063ffffffff16565b600101610c18565b50610c6781610fa7565b60808301515115610d2a575f83602001516002811115610c8957610c89611502565b03610ca75760405163a80d31f760e01b815260040160405180910390fd5b60408051808201909152600f81526e39b2b1b932ba39a637b1b0ba34b7b760891b6020820152610cd8908290610f2c565b610cf183602001516002811115610b5c57610b5c611502565b6040805180820190915260078152667365637265747360c81b6020820152610d1a908290610f2c565b6080830151610d2a908290610fc5565b60c08301515115610dba5760408051808201909152600981526862797465734172677360b81b6020820152610d60908290610f2c565b610d6981610f83565b5f5b8360c0015151811015610db057610da88460c001518281518110610d9157610d9161164a565b602002602001015183610fc590919063ffffffff16565b600101610d6b565b50610dba81610fa7565b515192915050565b5f807f00000000000000000000000000000000000000000000000000000000000000006001600160a01b031663461d27628688600188886040518663ffffffff1660e01b8152600401610e199594939291906116a2565b6020604051808303815f875af1158015610e35573d5f803e3d5ffd5b505050506040513d601f19601f82011682018060405250810190610e59919061168b565b60405190915081907f1131472297a800fee664d1d89cfa8f7676ff07189ecc53f80bbb5f4969099db8905f90a295945050505050565b80515f03610eb0576040516322ce3edd60e01b815260040160405180910390fd5b83836002811115610ec357610ec3611502565b90816002811115610ed657610ed6611502565b90525060408401828015610eec57610eec611502565b90818015610efc57610efc611502565b9052506060909301929092525050565b610f14611372565b8051610f209083610fd2565b505f6020820152919050565b610f398260038351611049565b8151610f459082611168565b505050565b8151610f579060c261118f565b50610ad18282604051602001610f6f91815260200190565b604051602081830303815290604052610fc5565b610f8e8160046111f6565b600181602001818151610fa19190611721565b90525050565b610fb28160076111f6565b600181602001818151610fa19190611734565b610f398260028351611049565b60408051808201909152606081525f6020820152610ff1602083611747565b1561101957611001602083611747565b61100c906020611734565b6110169083611721565b91505b60208084018390526040518085525f815290818401018181101561103b575f80fd5b604052508290505b92915050565b6017816001600160401b03161161107557825161106f9060e0600585901b16831761118f565b50505050565b60ff816001600160401b0316116110b557825161109d906018611fe0600586901b161761118f565b50825161106f906001600160401b038316600161120d565b61ffff816001600160401b0316116110f65782516110de906019611fe0600586901b161761118f565b50825161106f906001600160401b038316600261120d565b63ffffffff816001600160401b03161161113957825161112190601a611fe0600586901b161761118f565b50825161106f906001600160401b038316600461120d565b825161115090601b611fe0600586901b161761118f565b50825161106f906001600160401b038316600861120d565b60408051808201909152606081525f60208201526111888383845161128f565b9392505050565b60408051808201909152606081525f60208201528251515f6111b2826001611721565b9050846020015182106111d3576111d3856111ce836002611766565b61135b565b84516020838201018581535080518211156111ec578181525b5093949350505050565b8151610f4590601f611fe0600585901b161761118f565b60408051808201909152606081525f60208201528351515f61122f8285611721565b9050856020015181111561124c5761124c866111ce836002611766565b5f600161125b8661010061185d565b6112659190611734565b90508651828101878319825116178152508051831115611283578281525b50959695505050505050565b60408051808201909152606081525f602082015282518211156112b0575f80fd5b8351515f6112be8483611721565b905085602001518111156112db576112db866111ce836002611766565b85518051838201602001915f91808511156112f4578482525b505050602086015b602086106113345780518252611313602083611721565b9150611320602082611721565b905061132d602087611734565b95506112fc565b5181515f1960208890036101000a0190811690199190911617905250849150509392505050565b81516113678383610fd2565b5061106f8382611168565b60405180604001604052806113996040518060400160405280606081526020015f81525090565b81526020015f81525090565b634e487b7160e01b5f52604160045260245ffd5b5f82601f8301126113c8575f80fd5b81356001600160401b03808211156113e2576113e26113a5565b604051601f8301601f19908116603f0116810190828211818310171561140a5761140a6113a5565b81604052838152866020858801011115611422575f80fd5b836020870160208301375f602085830101528094505050505092915050565b5f805f60608486031215611453575f80fd5b8335925060208401356001600160401b0380821115611470575f80fd5b61147c878388016113b9565b93506040860135915080821115611491575f80fd5b5061149e868287016113b9565b9150509250925092565b5f602082840312156114b8575f80fd5b81356001600160401b0381168114611188575f80fd5b80356001600160a01b03811681146114e4575f80fd5b919050565b5f602082840312156114f9575f80fd5b611188826114ce565b634e487b7160e01b5f52602160045260245ffd5b602081016005831061153657634e487b7160e01b5f52602160045260245ffd5b91905290565b5f8083601f84011261154c575f80fd5b5081356001600160401b03811115611562575f80fd5b602083019150836020828501011115611579575f80fd5b9250929050565b5f805f805f60608688031215611594575f80fd5b61159d866114ce565b945060208601356001600160401b03808211156115b8575f80fd5b6115c489838a0161153c565b909650945060408801359150808211156115dc575f80fd5b506115e98882890161153c565b969995985093965092949392505050565b5f806040838503121561160b575f80fd5b611614836114ce565b915060208301358015158114611628575f80fd5b809150509250929050565b5f60208284031215611643575f80fd5b5035919050565b634e487b7160e01b5f52603260045260245ffd5b634e487b7160e01b5f52601160045260245ffd5b60ff81811683821601908111156110435761104361165e565b5f6020828403121561169b575f80fd5b5051919050565b6001600160401b03861681525f602060a0602084015286518060a08501525f5b818110156116de5788810183015185820160c0015282016116c2565b505f60c0828601015260c0601f19601f83011685010192505050611708604083018661ffff169052565b63ffffffff939093166060820152608001529392505050565b808201808211156110435761104361165e565b818103818111156110435761104361165e565b5f8261176157634e487b7160e01b5f52601260045260245ffd5b500690565b80820281158282048414176110435761104361165e565b600181815b808511156117b757815f190482111561179d5761179d61165e565b808516156117aa57918102915b93841c9390800290611782565b509250929050565b5f826117cd57506001611043565b816117d957505f611043565b81600181146117ef57600281146117f957611815565b6001915050611043565b60ff84111561180a5761180a61165e565b50506001821b611043565b5060208310610133831016604e8410600b8410161715611838575081810a611043565b611842838361177d565b805f19048211156118555761185561165e565b029392505050565b5f61118883836117bf56fe636f6e7374206c6174203d20617267735b305d3b636f6e7374206c6f6e203d20617267735b315d3b636f6e73742075726c203d202768747470733a2f2f6170692e6f70656e2d6d6574656f2e636f6d2f76312f666f7265636173742720202b20273f6c617469747564653d27202b206c6174202b2027266c6f6e6769747564653d27202b206c6f6e20202b2027266461696c793d70726563697069746174696f6e5f73756d26706173745f646179733d3726666f7265636173745f646179733d302674696d657a6f6e653d6175746f273b636f6e73742072203d2061776169742046756e6374696f6e732e6d616b654874747052657175657374287b2075726c207d293b69662028722e6572726f7229207468726f77204572726f7228276f70656e2d6d6574656f3a2027202b204a534f4e2e737472696e6769667928722e6572726f7229293b636f6e73742076616c73203d20722e646174612e6461696c792e70726563697069746174696f6e5f73756d207c7c205b5d3b636f6e737420746f74616c203d2076616c732e7265647563652828612c206229203d3e2061202b202862207c7c2030292c2030293b72657475726e2046756e6374696f6e732e656e636f646555696e7432353628746f74616c203c2035203f2031203a2030293ba26469706673582212209066b1abcb920f9763bee8b99977b26448a8879be847b86be625084cc7caf93164736f6c63430008180033",
  "linkReferences": {},
  "deployedLinkReferences": {}
}