{
  "_format": "hh-sol-artifact-1",
  "contractName": "MockUSDC",
  "sourceName": "contracts/MockUSDC.sol",
  "abi": [
    {
      "inputs": [
        {
          "internalType": "address",
          "name": "initialOwner",
          "type": "address"
        }
      ],
      "stateMutability": "nonpayable",
      "type": "constructor"
    },
    {
      "inputs": [
        {
          "internalType": "address",
          "name": "spender",
          "type": "address"
        },
        {
          "internalType": "uint256",
          "name": "allowance",
          "type": "uint256"
        },
        {
          "internalType": "uint256",
          "name": "needed",
          "type": "uint256"
        }
      ],
      "name": "ERC20InsufficientAllowance",
      "type": "error"
    },
    {
      "inputs": [
        {
          "internalType": "address",
          "name": "sender",
          "type": "address"
        },
        {
          "internalType": "uint256",
          "name": "balance",
          "type": "uint256"
        },
        {
          "internalType": "uint256",
          "name": "needed",
          "type": "uint256"
        }
      ],
      "name": "ERC20InsufficientBalance",
      "type": "error"
    },
    {
      "inputs": [
        {
          "internalType": "address",
          "name": "approver",
          "type": "address"
        }
      ],
      "name": "ERC20InvalidApprover",
      "type": "error"
    },
    {
      "inputs": [
        {
          "internalType": "address",
          "name": "receiver",
          "type": "address"
        }
      ],
      "name": "ERC20InvalidReceiver",
      "type": "error"
    },
    {
      "inputs": [
        {
          "internalType": "address",
          "name": "sender",
          "type": "address"
        }
      ],
      "name": "ERC20InvalidSender",
      "type": "error"
    },
    {
      "inputs": [
        {
          "internalType": "address",
          "name": "spender",
          "type": "address"
        }
      ],
      "name": "ERC20InvalidSpender",
      "type": "error"
    },
    {
      "inputs": [
        {
          "internalType": "address",
          "name": "owner",
          "type": "address"
        }
      ],
      "name": "OwnableInvalidOwner",
      "type": "error"
    },
    {
      "inputs": [
        {
          "internalType": "address",
          "name": "account",
          "type": "address"
        }
      ],
      "name": "OwnableUnauthorizedAccount",
      "type": "error"
    },
    {
      "anonymous": false,
      "inputs": [
        {
          "indexed": true,
          "internalType": "address",
          "name": "owner",
          "type": "address"
        },
        {
          "indexed": true,
          "internalType": "address",
          "name": "spender",
          "type": "address"
        },
        {
          "indexed": false,
          "internalType": "uint256",
          "name": "value",
          "type": "uint256"
        }
      ],
      "name": "Approval",
      "type": "event"
    },
    {
      "anonymous": false,
      "inputs": [
        {
          "indexed": true,
          "internalType": "address",
          "name": "previousOwner",
          "type": "address"
        },
        {
          "indexed": true,
          "internalType": "address",
          "name": "newOwner",
          "type": "address"
        }
      ],
      "name": "OwnershipTransferred",
      "type": "event"
    },
    {
      "anonymous": false,
      "inputs": [
        {
          "indexed": true,
          "internalType": "address",
          "name": "from",
          "type": "address"
        },
        {
          "indexed": true,
          "internalType": "address",
          "name": "to",
          "type": "address"
        },
        {
          "indexed": false,
          "internalType": "uint256",
          "name": "value",
          "type": "uint256"
        }
      ],
      "name": "Transfer",
      "type": "event"
    },
    {
      "inputs": [
        {
          "internalType": "address",
          "name": "owner",
          "type": "address"
        },
        {
          "internalType": "address",
          "name": "spender",
          "type": "address"
        }
      ],
      "name": "allowance",
      "outputs": [
        {
          "internalType": "uint256",
          "name": "",
          "type": "uint256"
        }
      ],
      "stateMutability": "view",
      "type": "function"
    },
    {
      "inputs": [
        {
          "internalType": "address",
          "name": "spender",
          "type": "address"
        },
        {
          "internalType": "uint256",
          "name": "value",
          "type": "uint256"
        }
      ],
      "name": "approve",
      "outputs": [
        {
          "internalType": "bool",
          "name": "",
          "type": "bool"
        }
      ],
      "stateMutability": "nonpayable",
      "type": "function"
    },
    {
      "inputs": [
        {
          "internalType": "address",
          "name": "account",
          "type": "address"
        }
      ],
      "name": "balanceOf",
      "outputs": [
        {
          "internalType": "uint256",
          "name": "",
          "type": "uint256"
        }
      ],
      "stateMutability": "view",
      "type": "function"
    },
    {
      "inputs": [],
      "name": "decimals",
      "outputs": [
        {
          "internalType": "uint8",
          "name": "",
          "type": "uint8"
        }
      ],
      "stateMutability": "pure",
      "type": "function"
    },
    {
      "inputs": [
        {
          "internalType": "address",
          "name": "to",
          "type": "address"
        },
        {
          "internalType": "uint256",
          "name": "amount",
          "type": "uint256"
        }
      ],
      "name": "faucet",
      "outputs": [],
      "stateMutability": "nonpayable",
      "type": "function"
    },
    {
      "inputs": [],
      "name": "name",
      "outputs": [
        {
          "internalType": "string",
          "name": "",
          "type": "string"
        }
      ],
      "stateMutability": "view",
      "type": "function"
    },
    {
      "inputs": [],
      "name": "owner",
      "outputs": [
        {
          "internalType": "address",
          "name": "",
          "type": "address"
        }
      ],
      "stateMutability": "view",
      "type": "function"
    },
    {
      "inputs": [],
      "name": "renounceOwnership",
      "outputs": [],
      "stateMutability": "nonpayable",
      "type": "function"
    },
    {
      "inputs": [],
      "name": "symbol",
      "outputs": [
        {
          "internalType": "string",
          "name": "",
          "type": "string"
        }
      ],
      "stateMutability": "view",
      "type": "function"
    },
    {
      "inputs": [],
      "name": "totalSupply",
      "outputs": [
        {
          "internalType": "uint256",
          "name": "",
          "type": "uint256"
        }
      ],
      "stateMutability": "view",
      "type": "function"
    },
    {
      "inputs": [
        {
          "internalType": "address",
          "name": "to",
          "type": "address"
        },
        {
          "internalType": "uint256",
          "name": "value",
          "type": "uint256"
        }
      ],
      "name": "transfer",
      "outputs": [
        {
          "internalType": "bool",
          "name": "",
          "type": "bool"
        }
      ],
      "stateMutability": "nonpayable",
      "type": "function"
    },
    {
      "inputs": [
        {
          "internalType": "address",
          "name": "from",
          "type": "address"
        },
        {
          "internalType": "address",
          "name": "to",
          "type": "address"
        },
        {
          "internalType": "uint256",
          "name": "value",
          "type": "uint256"
        }
      ],
      "name": "transferFrom",
      "outputs": [
        {
          "internalType": "bool",
          "name": "",
          "type": "bool"
        }
      ],
      "stateMutability": "nonpayable",
      "type": "function"
    },
    {
      "inputs": [
        {
          "internalType": "address",
          "name": "newOwner",
          "type": "address"
        }
      ],
      "name": "transferOwnership",
      "outputs": [],
      "stateMutability": "nonpayable",
      "type": "function"
    }
  ],
  "bytecode": "0x608060405234801562000010575f80fd5b5060405162000d0c38038062000d0c8339810160408190526200003391620002a7565b80604051806040016040528060098152602001684d6f636b205553444360b81b815250604051806040016040528060058152602001646d5553444360d81b815250816003908162000085919062000374565b50600462000094828262000374565b5050506001600160a01b038116620000c657604051631e4fbdf760e01b81525f60048201526024015b60405180910390fd5b620000d181620000eb565b50620000e4816509184e72a0006200013c565b5062000466565b600580546001600160a01b038381166001600160a01b0319831681179093556040519116919082907f8be0079c531659141344cd1fd0a4f28419497f9722a3daafe3b4186f6b6457e0905f90a35050565b6001600160a01b038216620001675760405163ec442f0560e01b81525f6004820152602401620000bd565b620001745f838362000178565b5050565b6001600160a01b038316620001a6578060025f8282546200019a919062000440565b90915550620002189050565b6001600160a01b0383165f9081526020819052604090205481811015620001fa5760405163391434e360e21b81526001600160a01b03851660048201526024810182905260448101839052606401620000bd565b6001600160a01b0384165f9081526020819052604090209082900390555b6001600160a01b038216620002365760028054829003905562000254565b6001600160a01b0382165f9081526020819052604090208054820190555b816001600160a01b0316836001600160a01b03167fddf252ad1be2c89b69c2b068fc378daa952ba7f163c4a11628f55a4df523b3ef836040516200029a91815260200190565b60405180910390a3505050565b5f60208284031215620002b8575f80fd5b81516001600160a01b0381168114620002cf575f80fd5b9392505050565b634e487b7160e01b5f52604160045260245ffd5b600181811c90821680620002ff57607f821691505b6020821081036200031e57634e487b7160e01b5f52602260045260245ffd5b50919050565b601f8211156200036f57805f5260205f20601f840160051c810160208510156200034b5750805b601f840160051c820191505b818110156200036c575f815560010162000357565b50505b505050565b81516001600160401b03811115620003905762000390620002d6565b620003a881620003a18454620002ea565b8462000324565b602080601f831160018114620003de575f8415620003c65750858301515b5f19600386901b1c1916600185901b17855562000438565b5f85815260208120601f198616915b828110156200040e57888601518255948401946001909101908401620003ed565b50858210156200042c57878501515f19600388901b60f8161c191681555b505060018460011b0185555b505050505050565b808201808211156200046057634e487b7160e01b5f52601160045260245ffd5b92915050565b61089880620004745f395ff3fe608060405234801561000f575f80fd5b50600436106100cb575f3560e01c8063715018a61161008857806395d89b411161006357806395d89b41146101a4578063a9059cbb146101ac578063dd62ed3e146101bf578063f2fde38b146101f7575f80fd5b8063715018a61461016c5780637b56c2b2146101765780638da5cb5b14610189575f80fd5b806306fdde03146100cf578063095ea7b3146100ed57806318160ddd1461011057806323b872dd14610122578063313ce5671461013557806370a0823114610144575b5f80fd5b6100d761020a565b6040516100e491906106f2565b60405180910390f35b6101006100fb366004610759565b61029a565b60405190151581526020016100e4565b6002545b6040519081526020016100e4565b610100610130366004610781565b6102b3565b604051600681526020016100e4565b6101146101523660046107ba565b6001600160a01b03165f9081526020819052604090205490565b6101746102d6565b005b610174610184366004610759565b6102e9565b6005546040516001600160a01b0390911681526020016100e4565b6100d76102ff565b6101006101ba366004610759565b61030e565b6101146101cd3660046107da565b6001600160a01b039182165f90815260016020908152604080832093909416825291909152205490565b6101746102053660046107ba565b61031b565b6060600380546102199061080b565b80601f01602080910402602001604051908101604052809291908181526020018280546102459061080b565b80156102905780601f1061026757610100808354040283529160200191610290565b820191905f5260205f20905b81548152906001019060200180831161027357829003601f168201915b5050505050905090565b5f336102a781858561035d565b60019150505b92915050565b5f336102c085828561036f565b6102cb8585856103eb565b506001949350505050565b6102de610448565b6102e75f610475565b565b6102f1610448565b6102fb82826104c6565b5050565b6060600480546102199061080b565b5f336102a78185856103eb565b610323610448565b6001600160a01b03811661035157604051631e4fbdf760e01b81525f60048201526024015b60405180910390fd5b61035a81610475565b50565b61036a83838360016104fa565b505050565b6001600160a01b038381165f908152600160209081526040808320938616835292905220545f198110156103e557818110156103d757604051637dc7a0d960e11b81526001600160a01b03841660048201526024810182905260448101839052606401610348565b6103e584848484035f6104fa565b50505050565b6001600160a01b03831661041457604051634b637e8f60e11b81525f6004820152602401610348565b6001600160a01b03821661043d5760405163ec442f0560e01b81525f6004820152602401610348565b61036a8383836105cc565b6005546001600160a01b031633146102e75760405163118cdaa760e01b8152336004820152602401610348565b600580546001600160a01b038381166001600160a01b0319831681179093556040519116919082907f8be0079c531659141344cd1fd0a4f28419497f9722a3daafe3b4186f6b6457e0905f90a35050565b6001600160a01b0382166104ef5760405163ec442f0560e01b81525f6004820152602401610348565b6102fb5f83836105cc565b6001600160a01b0384166105235760405163e602df0560e01b81525f6004820152602401610348565b6001600160a01b03831661054c57604051634a1406b160e11b81525f6004820152602401610348565b6001600160a01b038085165f90815260016020908152604080832093871683529290522082905580156103e557826001600160a01b0316846001600160a01b03167f8c5be1e5ebec7d5bd14f71427d1e84f3dd0314c0f7b2291e5b200ac8c7c3b925846040516105be91815260200190565b60405180910390a350505050565b6001600160a01b0383166105f6578060025f8282546105eb9190610843565b909155506106669050565b6001600160a01b0383165f90815260208190526040902054818110156106485760405163391434e360e21b81526001600160a01b03851660048201526024810182905260448101839052606401610348565b6001600160a01b0384165f9081526020819052604090209082900390555b6001600160a01b038216610682576002805482900390556106a0565b6001600160a01b0382165f9081526020819052604090208054820190555b816001600160a01b0316836001600160a01b03167fddf252ad1be2c89b69c2b068fc378daa952ba7f163c4a11628f55a4df523b3ef836040516106e591815260200190565b60405180910390a3505050565b5f602080835283518060208501525f5b8181101561071e57858101830151858201604001528201610702565b505f604082860101526040601f19601f8301168501019250505092915050565b80356001600160a01b0381168114610754575f80fd5b919050565b5f806040838503121561076a575f80fd5b6107738361073e565b946020939093013593505050565b5f805f60608486031215610793575f80fd5b61079c8461073e565b92506107aa6020850161073e565b9150604084013590509250925092565b5f602082840312156107ca575f80fd5b6107d38261073e565b9392505050565b5f80604083850312156107eb575f80fd5b6107f48361073e565b91506108026020840161073e565b90509250929050565b600181811c9082168061081f57607f821691505b60208210810361083d57634e487b7160e01b5f52602260045260245ffd5b50919050565b808201808211156102ad57634e487b7160e01b5f52601160045260245ffdfea26469706673582212203fb18e2dfcf58c9d37aa3f9904e9e493ca4f2d26d701f5b9bcbd952f36e92ebe64736f6c63430008180033",
  "linkReferences": {},
  "deployedLinkReferences": {}
}