{
  "_format": "hh-sol-artifact-1",
  "contractName": "MockOracle",
  "sourceName": "contracts/MockOracle.sol",
  "abi": [
    {
      "inputs": [
        {
          "internalType": "address",
          "name": "initialOwner",
          "type": "address"
        }
      ],
      "stateMutability": "nonpayable",
      "type": "constructor"
    },
    {
      "inputs": [
        {
          "internalType": "address",
          "name": "owner",
          "type": "address"
        }
      ],
      "name": "OwnableInvalidOwner",
      "type": "error"
    },
    {
      "inputs": [
        {
          "internalType": "address",
          "name": "account",
          "type": "address"
        }
      ],
      "name": "OwnableUnauthorizedAccount",
      "type": "error"
    },
    {
      "anonymous": false,
      "inputs": [
        {
          "indexed": true,
          "internalType": "address",
          "name": "previousOwner",
          "type": "address"
        },
        {
          "indexed": true,
          "internalType": "address",
          "name": "newOwner",
          "type": "address"
        }
      ],
      "name": "OwnershipTransferred",
      "type": "event"
    },
    {
      "anonymous": false,
      "inputs": [
        {
          "indexed": true,
          "internalType": "address",
          "name": "vault",
          "type": "address"
        },
        {
          "indexed": false,
          "internalType": "enum MockOracle.CropState",
          "name": "newState",
          "type": "uint8"
        }
      ],
      "name": "StateAdvanced",
      "type": "event"
    },
    {
      "inputs": [
        {
          "internalType": "address",
          "name": "vault",
          "type": "address"
        },
        {
          "internalType": "bool",
          "name": "success",
          "type": "bool"
        }
      ],
      "name": "advanceState",
      "outputs": [],
      "stateMutability": "nonpayable",
      "type": "function"
    },
    {
      "inputs": [
        {
          "internalType": "address",
          "name": "vault",
          "type": "address"
        }
      ],
      "name": "getState",
      "outputs": [
        {
          "internalType": "enum MockOracle.CropState",
          "name": "",
          "type": "uint8"
        }
      ],
      "stateMutability": "view",
      "type": "function"
    },
    {
      "inputs": [],
      "name": "owner",
      "outputs": [
        {
          "internalType": "address",
          "name": "",
          "type": "address"
        }
      ],
      "stateMutability": "view",
      "type": "function"
    },
    {
      "inputs": [
        {
          "internalType": "address",
          "name": "vault",
          "type": "address"
        }
      ],
      "name": "registerVault",
      "outputs": [],
      "stateMutability": "nonpayable",
      "type": "function"
    },
    {
      "inputs": [],
      "name": "renounceOwnership",
      "outputs": [],
      "stateMutability": "nonpayable",
      "type": "function"
    },
    {
      "inputs": [
        {
          "internalType": "address",
          "name": "newOwner",
          "type": "address"
        }
      ],
      "name": "transferOwnership",
      "outputs": [],
      "stateMutability": "nonpayable",
      "type": "function"
    },
    {
      "inputs": [
        {
          "internalType": "address",
          "name": "",
          "type": "address"
        }
      ],
      "name": "vaultStates",
      "outputs": [
        {
          "internalType": "enum MockOracle.CropState",
          "name": "",
          "type": "uint8"
        }
      ],
      "stateMutability": "view",
      "type": "function"
    }
  ],
  "bytecode": "0x608060405234801561000f575f80fd5b506040516106cc3803806106cc83398101604081905261002e916100bb565b806001600160a01b03811661005c57604051631e4fbdf760e01b81525f600482015260240160405180910390fd5b6100658161006c565b50506100e8565b5f80546001600160a01b038381166001600160a01b0319831681178455604051919092169283917f8be0079c531659141344cd1fd0a4f28419497f9722a3daafe3b4186f6b6457e09190a35050565b5f602082840312156100cb575f80fd5b81516001600160a01b03811681146100e1575f80fd5b9392505050565b6105d7806100f55f395ff3fe608060405234801561000f575f80fd5b506004361061007a575f3560e01c8063715018a611610058578063715018a6146100f65780638da5cb5b146100fe578063a9a6f5fc14610118578063f2fde38b1461012b575f80fd5b80631bab58f51461007e5780635f49202f146100bf57806367ccd1cb146100e1575b5f80fd5b6100a961008c3660046104e3565b6001600160a01b03165f9081526001602052604090205460ff1690565b6040516100b69190610517565b60405180910390f35b6100a96100cd3660046104e3565b60016020525f908152604090205460ff1681565b6100f46100ef3660046104e3565b61013e565b005b6100f46101e4565b5f546040516001600160a01b0390911681526020016100b6565b6100f461012636600461053d565b6101f7565b6100f46101393660046104e3565b610410565b61014661044d565b6001600160a01b0381165f9081526001602052604081205460ff16600481111561017257610172610503565b146101c45760405162461bcd60e51b815260206004820181905260248201527f4f7261636c653a207661756c7420616c7265616479207265676973746572656460448201526064015b60405180910390fd5b6001600160a01b03165f908152600160205260409020805460ff19169055565b6101ec61044d565b6101f55f610479565b565b6101ff61044d565b6001600160a01b0382165f9081526001602052604090205460ff16600381600481111561022e5761022e610503565b1415801561024e5750600481600481111561024b5761024b610503565b14155b6102a65760405162461bcd60e51b8152602060048201526024808201527f4f7261636c653a207661756c7420697320696e2061207465726d696e616c20736044820152637461746560e01b60648201526084016101bb565b5f60028260048111156102bb576102bb610503565b0361035957821561031d5760039050836001600160a01b03166328a070256040518163ffffffff1660e01b81526004015f604051808303815f87803b158015610302575f80fd5b505af1158015610314573d5f803e3d5ffd5b5050505061038d565b60049050836001600160a01b031663175f83296040518163ffffffff1660e01b81526004015f604051808303815f87803b158015610302575f80fd5b81600481111561036b5761036b610503565b610376906001610576565b60ff16600481111561038a5761038a610503565b90505b6001600160a01b0384165f9081526001602081905260409091208054839260ff19909116908360048111156103c4576103c4610503565b0217905550836001600160a01b03167f3c0dd05803da5e7753e2213fa206c3616975d1897e5ab9e6c098093c2c7a148e826040516104029190610517565b60405180910390a250505050565b61041861044d565b6001600160a01b03811661044157604051631e4fbdf760e01b81525f60048201526024016101bb565b61044a81610479565b50565b5f546001600160a01b031633146101f55760405163118cdaa760e01b81523360048201526024016101bb565b5f80546001600160a01b038381166001600160a01b0319831681178455604051919092169283917f8be0079c531659141344cd1fd0a4f28419497f9722a3daafe3b4186f6b6457e09190a35050565b80356001600160a01b03811681146104de575f80fd5b919050565b5f602082840312156104f3575f80fd5b6104fc826104c8565b9392505050565b634e487b7160e01b5f52602160045260245ffd5b602081016005831061053757634e487b7160e01b5f52602160045260245ffd5b91905290565b5f806040838503121561054e575f80fd5b610557836104c8565b91506020830135801515811461056b575f80fd5b809150509250929050565b60ff818116838216019081111561059b57634e487b7160e01b5f52601160045260245ffd5b9291505056fea2646970667358221220f081aedb56bcb9942680b535334cf76aae357bcddfa0fb4a90ab0df3c8b425fb64736f6c63430008180033",
  "linkReferences": {},
  "deployedLinkReferences": {}
}